S017000054696D65436F6D70617265556E69742E7372656317
S214400000784E4020E50E4000E30E4000E30E4000F0
S214400010E30E4000E30E4000E30E40000000000008
S214400020000000000000000000000000E30E40005A
S214400030E30E400000000000E30E4000CD6C4000A0
S214400040E30E4000E30E4000E30E4000E30E4000A7
S214400050E30E4000E30E4000E30E4000E30E400097
S214400060E30E400000000000E10A4000F50A4000B0
S214400070090B4000E30E4000E30E4000E30E400054
S2144000801D0B4000310B4000E30E4000E30E4000E5
S214400090E30E4000E30E4000E30E4000FD664000E5
S2144000A0E30E4000E30E4000E30E4000E30E400047
S2144000B0E30E4000E30E4000E30E4000E30E400037
S2144000C0E30E4000E30E4000E30E4000E30E400027
S2144000D0E30E4000E30E4000E30E4000955F400014
S2144000E0E30E4000E30E4000E30E4000E30E400007
S2144000F0E30E4000E30E4000E30E4000E30E4000F7
S214400100E30E4000E30E4000E30E4000E30E4000E6
S214400110E30E400000000000000000000000000069
S214400120E30E4000E30E4000E30E4000E30E4000C6
S214400130E30E4000E30E4000E30E4000E30E4000B6
S214400140E30E4000E30E4000E30E4000E30E4000A6
S214400150E30E4000E30E4000E30E4000E30E400096
S214400160E30E4000E30E400010B5054C237833B94B
S214400170044B13B10448AFF300800123237010BD35
S214400180100A402000000000ACEF40000C4B43B18A
S2144001900C480D4910B5AFF300800C48036823B9EE
S2144001A010BD0A48036833B97047094B002BF7D097
S2144001B0BDE810401847064B002BF5D0184700BF47
S2144001C000000000ACEF4000140A4020ACEF4000B6
S2144001D00000000010B51048104B98473E21002004
S2144001E00F4B98470F4CA0470028FCD00E4B984723
S2144001F00E4A0F4B9A620F4CA0470028FCD00220B4
S2144002000D4B984710200D4B98470D4B98470D487F
S214400210024B984710BD00BF000E2707B91040009C
S214400220650C4000B90C4000C90C4000013F182046
S21440023000060E40D90C4000C90B4000010C40009F
S214400240AD0F400080D1F0082DE9F04180B90C4652
S2144002509046002A0FDD8F18084E094D306821461B
S2144002602B6898470134BC42F8D14046BDE8F0813F
S2144002704FF0FF38F9E78046F7E700BF2C394020BB
S214400280243940200138022815D82DE9F0410E4681
S21440029014469AB10D46DFF838800C4FD8F8000067
S2144002A015F8011B3B68984700280ADBA81B013C51
S2144002B0F4D1BDE8F0814FF0FF3070471046BDE8FE
S2144002C0F0814FF0FF30BDE8F08100BF2839402074
S2144002D02C39402010B54FF400423B4B5A60A3F5F2
S2144002E045633A4A5A60A2F580725A60BFF34F8F10
S2144002F0BFF36F8F364BD3F8902222F00102C3F83B
S2144003009022D3F8942222F00102C3F89422BFF33D
S2144003104F8FBFF36F8F0A202E4CA0470B20A0476D
S2144003200C20A0471020A0471120A0472A4B4FF48E
S21440033080721A61C3F8A0201A63A3F580634FF455
S21440034000625A61C3F8A0205A66C3F890205A65E6
S2144003501A62C3F88420196F21F400611967596F37
S21440036021F400615967C3F8C020C3F8D420C3F80D
S214400370B0204FF400121A66C3F890205A655A62AD
S214400380C3F88020196F21F400111967596F21F4C2
S214400390001159675A60114AD2F8143143F01003DD
S2144003A0C2F814310E4B10221A66C3F890205A65D4
S2144003B05A62C3F88020196F11431967596F114369
S2144003C059675A6010BD00BF50180E400C08005ABE
S2144003D000ED00E0E90C400000120E4000800840AE
S2144003E000100E40F0B583B004460F46164603682C
S2144003F043F01003036001AB0122364DA84758B9BD
S214400400019B13F0040F0DD1236823F010032360E3
S214400410FF23184603B0F0BD0346226822F01002C0
S2144004202260F6E72EB9236823F010032360334694
S214400430EFE76B461E2239462046264DA847034620
S21440044050B9019A12F4805F0BD0009911F0050F55
S2144004500CBF0121002105E0226822F01002226034
S214400460D7E7012112F4005F03D0009810F0020F86
S21440047027D112F4006F03D0009A12F0010F11D169
S21440048091B10122616841F001016160A2B16268E8
S21440049042F002026260226822F010022260B8E750
S2144004A01A46EFE71A4600E00122616821F0010192
S2144004B06160EBE71A46F8E7626822F00202626083
S2144004C0E9E712F4006FEBD0009A12F0010FF1D179
S2144004D01A46D7E7390840002DE9F04182B0044675
S2144004E00D46036843F01003036001AB00225D4EE7
S2144004F0B04740B10346226822F0100222601846F8
S21440050002B0BDE8F081019B23F4B04343F480631E
S2144005100193002229462046534EB047034620B159
S214400520226822F010022260E9E740F2E11304223A
S214400530294620464C4EB047034620B1226822F05A
S21440054010022260DBE701AB002229462046454EDA
S214400550B047034620B1226822F010022260CEE760
S214400560019B43F4445301930022294620463E4EC5
S214400570B047034620B1226822F010022260BEE750
S214400580019B23F4806343F40073019300222946C1
S2144005902046354EB0470346B0B9344E4FF00108BA
S2144005A0304F01AB424629462046B847034680B9FD
S2144005B0019B13F0200F11D1013EF2D1236823F0A6
S2144005C01003236001239AE7226822F0100222607B
S2144005D095E7226822F01002226090E76B460522DB
S2144005E0294620461F4DA847034680B9009A12F474
S2144005F0807F13D112F0400F2CD112F0800F08BF2D
S214400600024609D1616821F0010161600BE0226871
S21440061022F01002226072E7024600E00122616882
S21440062041F001016160BAB1626842F00202626064
S214400630E26822F00102E2600D4A116841F00801CA
S2144006401160116841F004011160226822F0100226
S214400650226054E70122D5E7626822F00202626017
S214400660E6E700BF390840009908400040420F00C6
S214400670000005402DE9F04383B0054689460368EF
S21440068043F0100303604FF4004302AE46F8043DC7
S21440069000220E4CA0470A244FF000080C4F334669
S2144006A0424649462846B847013C019B13F4004F52
S2144006B001D0002CF3D12B6823F010032B60B4FA42
S2144006C084F0400903B0BDE8F08300BF99084000BD
S2144006D0390840002DE9F04385B006468846154661
S2144006E001240094002322464FF480614348444F3F
S2144006F0B84722464FF480414248434B984740F221
S214400700FF324FF000614148414B984741464148CF
S214400710414B9847414B9D425DD8414B9D420FD837
S214400720404B9D423ED8404B9D423ED83F4B9D421B
S2144007303ED83F4B9D428CBF4FF48023002301E0C0
S2144007404FF4A013726822F4E012726075681D437D
S214400750756004AB002243F8042D326842F0100264
S2144007603260022241463046324CA047039B222B41
S21440077035D0444620254FF002092E4F013404F070
S2144007801F0403AB4A4621463046B847039B222BFC
S21440079011D06B1E13F0FF05F0D1336823F0100321
S2144007A0336018E04FF48013CCE74FF44023C9E79A
S2144007B04FF40023C6E7336823F01003336003ABDF
S2144007C00122214630461B4DA847A04503D041464E
S2144007D03046114B9847002005B0BDE8F08333689B
S2144007E023F010033360B8F1FF0FF4D003AB0122BF
S2144007F0414630460F4CA047EDE700BF00120E4082
S214400800B5094000000E0E407F09400000140E401F
S214400810ED0840000000054075064000001C4E0EE6
S21440082000688909000E270700B4C404005A620213
S214400830002D31013908400010B483B0846814F0AC
S214400840040FFBD0920402F4F804114A2243C9056F
S21440085001F078610A434263002201920D498268A2
S21440086012F0040F07D1019A01320192019A8A428E
S214400870F5D9012007E0826812F0040FFBD0426BE6
S21440088092B21A60002003B05DF8044B704700BF78
S214400890000002603F420F0010B483B0846814F03A
S2144008A0040FFBD0920402F4F8040E4A2243C90512
S2144008B001F078610A439BB21A43426300230193D6
S2144008C0094A836813F0040F07D1019B0133019353
S2144008D0019B9342F5D9012000E0002003B05DF86B
S2144008E0044B7047000002503F420F004264B1F193
S2144008F0C05F3AD013D8B1F1006F25D0B1F1805F18
S2144009000AD1036F13430367436F416F0B4023EADB
S21440091002034367426070470029FBD17047B1F13C
S214400920205F21D009D8B1F1005FF3D1036F1343A4
S2144009300367436F13434367ECE7B1F1405F13D05F
S214400940B1F1605F10D0E5E710B4016F046FD34398
S21440095021401C4619400167436F416F0B402340BE
S214400960436742605DF8044B7047036F016F0B406E
S21440097023EA02030367436F13434367CAE74164AE
S21440098012F0010F0DD1016612F00A0F0BD0016272
S21440099012F0020F09D112F0080F08D0C0F88410E8
S2144009A005E04166F0E74162F2E7C0F88010416139
S2144009B00160704710B4019C41644CB901664BB16C
S2144009C001654AB94163016101605DF8044B7047B7
S2144009D04166F4E74165F4E70163F4E712F0100F6F
S2144009E012D0C0F8B01012F0200F07D0C0F8D410C4
S2144009F012F0400F05D0C0F8C0107047C0F8D010B5
S214400A00F6E7C0F8C4107047C0F8B41070470164E9
S214400A10704741647047C06C7047806C70470000F8
S214400A202DE9F041044688460E4B98470546204639
S214400A300D4B9847054013D00C4C04F1600603E07C
S214400A40B4420DD010345DB120684045F8D161689D
S214400A502942F5D0E3689847636825EA0305EFE73F
S214400A60BDE8F081170A40001B0A40002C0A4020CF
S214400A70F8B5184C2668062E2AD84FF0000C644667
S214400A80154F04E00134E4B2A446A64209D3A64674
S214400A9025017D598D42F5D107EB04156D689542C9
S214400AA0F0D10D4D4FEA0E1E05EB0E0445F80E1024
S214400AB06260A3600699E1600136664505D011463E
S214400AC01A46064B98470020F8BD02490E60F6E7E6
S214400AD00120F8BD9C0A40202C0A4020DD09400039
S214400AE008B50A210148024B984708BD000E0E4043
S214400AF0210A400008B50B210148024B984708BD23
S214400B0000100E40210A400008B50C210148024B57
S214400B10984708BD00120E40210A400008B5102133
S214400B200148024B984708BD00140E40210A400079
S214400B3008B511210148024B984708BD00160E40E3
S214400B40210A4000F8B506460D461446174B98470E
S214400B5007464FF0FF313046154B98473046154B09
S214400B6098475FFA85FE0EF01F03012202FA03F350
S214400B706809114901EB8002C2F88030C2F8803122
S214400B80002D0ADB6401E4B20C4A545541F820308B
S214400B90394630460A4B9847F8BD0EF00F0E6401B2
S214400BA0E4B2084A02F80E40F0E700BF1B0A4000D5
S214400BB0130A4000170A400000E100E000E400E0AD
S214400BC00F0A400014ED00E0032811D0042812D08C
S214400BD002280CBF4FF480710021084A136B23F49F
S214400BE040730B431363936E13F0080FFBD07047AC
S214400BF04FF44071F1E74FF40071EEE700060E4007
S214400C00174A136B23F0700318431063936E13F068
S214400C10080F0AD14FF4805311498A6E12F0080F1C
S214400C2003D1013BF9D1012070470D4A136B23F0E5
S214400C30030343F002031363936E13F0080F0AD1C5
S214400C404FF4805306498A6E12F0080F05D1013BD7
S214400C50F9D101207047002070470020704700BF40
S214400C6000060E40A0B90E48036A090289B20D4A32
S214400C701A400D4B1343194301620246936E13F01C
S214400C80010FFBD0064A116A084B0B4313627047AC
S214400C9003490B6A064A1A40064B13430B627047D9
S214400CA000060E40FCFFC8FF010037000000370179
S214400CB0FCFFC8FE02003701024B986E00F48030FD
S214400CC0704700BF00060E404FF00052014B9A623C
S214400CD0704700BF00060E40024B986E00F00200C0
S214400CE0704700BF00060E4000F07F00054BC3F87B
S214400CF00C01D3F80C2142F01022C3F80C2100203E
S214400D00704700BF00060E4010B489014318022405
S214400D1044504FF0FF319962196A5A605DF8044BAF
S214400D207047890105234350704700EB8111CA6123
S214400D30704700EB81114A627047F0B486B00224D7
S214400D4001940824029420240394802404940A9C4A
S214400D50E40B0594B0EB510F14D84C0CA04217D2BC
S214400D60012501AF57F82540B1FBF4F4260C844228
S214400D700AD386420DD90135052DF3D1002006B0A1
S214400D80F0BC70470020FAE70020F8E70120F6E7BD
S214400D9000252AB106A901EB850151F8141C116003
S214400DA0002BF3D01D600120E9E7436913F0020FE2
S214400DB002D0C1610020704701207047436913F09C
S214400DC0010F03D083690B700020704701207047E5
S214400DD010B40B01934214D9C9004B0803EBC2026E
S214400DE0B2FBF1F2D3085C1E4FF6FE718C4201D97D
S214400DF0012017E0416841F4002141600CE00120E9
S214400E0010E0590801EBC202B2FBF3F2D3085C1EB5
S214400E104FF6FE718C42F2D8120402F4E0221A43D6
S214400E20026200205DF8044B70470000084BC0F893
S214400E30E4300023436043628362882303602423B4
S214400E4003604FF4807303604FF4002303607047E1
S214400E500041535570B505460C4616460F4B98470D
S214400E6000220F4B1A60A4B13246216828460D4B2B
S214400E709847024678B96368A1680B4321690B43DB
S214400E80E1680B4306490B6069680B436B6010468C
S214400E9070BD0122FBE70122F9E700BF2D0E40009E
S214400EA0A00A4020D10D4000402303607047102325
S214400EB003607047436913F0020F04D0C1F3080182
S214400EC0C1610020704701207047436913F0010F4D
S214400ED005D08369C3F308030B60002070470120E8
S214400EE07047FEE700B583B0254B264A9A4210D09D
S214400EF0254B234A9A420CD2013B9B1A23F003030C
S214400F00043313441F4951F8040B42F8040B9A4229
S214400F10F9D11E4B1E4A9A420AD2013B9B1A23F035
S214400F20030304331344002142F8041B9342FBD1CD
S214400F30184A194B23F07F039360EFF31083B3FAFC
S214400F4083F35B09019372B6BFF35F8F0022134BA6
S214400F501A700199124A136843F470031360BFF382
S214400F604F8FBFF36F8F29B101220C4B1A70BFF31E
S214400F705F8F62B60B4B98470B4B9847FEE700BF18
S214400F8000004020ACEF4000100A4020744A402049
S214400F90100A402000ED00E0000040000000402025
S214400FA088ED00E0417B4000E16C40003B4B1B6B12
S214400FB003F00303012B1DD083B1022B36D0374BF1
S214400FC01B6B03F07003702B5FD0344B1A6B3449A5
S214400FD0C2F302120B68D3400B607047314B5B691B
S214400FE013F0800F14BF4FF400424FF4FA422C4BDC
S214400FF01A60E4E7294B1B6A13F0807F03D02A4A25
S214401000274B1A60DBE7294A254B1A60234B1B6A9D
S21440101003F07003102B05D0202BD0D1224A204B52
S2144010201A60CCE7224A1E4B1A60C8E71B4B1B6A65
S21440103013F0807F16D01C4A194B1A60174B1B6B57
S21440104003F00303022BBAD1144A916A926A1448F9
S214401050C1F30A41036801FB0333D2B2B3FBF2F398
S2144010600360ACE7114A0E4B1A600C4B1B6A03F048
S2144010707003102B05D0202BE0D10B4A084B1A608A
S214401080DCE70B4A064B1A60D8E7054A136809495D
S214401090A1FB03135B081360704700BF00060E40B9
S2144010A00400402010180E40001BB70000093D0009
S2144010B000127A00ABAAAAAA164B984213D9164B2E
S2144010C0984215D9154B984216D9154B984217D9C0
S2144010D0144B984218D9144B984294BF134A144A5A
S2144010E0144B1A6070474FF08062124B1A6070477C
S2144010F0114A104B1A607047104A0E4B1A607047E0
S2144011000F4A0C4B1A6070474FF00422094B1A6086
S214401110704700BFBFF35E017FE7BD023FDB1C04A4
S214401120FFCE7B05BFC2DA067FB63908000500044D
S21440113000060004000C0E400001000400020004FB
S214401140000300040A4B1B6853B1094B1B681A186E
S2144011500849914208DB1046054A10601846704719
S214401160054A034B1A60F0E74FF0FF30704700BF68
S214401170A40A4020FCFF4520785040204FF0FF3026
S21440118070474FF400534B60002070470120704773
S21440119000207047030A43EA002080B27047030AE3
S2144011A043EA002080B27047030E43EA006302021F
S2144011B002F47F021343000A00F47F40184370474E
S2144011C008B5014B984708BDA91140002DE9F043EA
S2144011D085B0804689461546002224210120224BB0
S2144011E0984700283DD00646D8F80470446884F8EE
S2144011F000906570002525716571A571E571D0F880
S21440120004C0D8F80430D3F800E058689968D3F89A
S2144012100C80CCF808E0CCF80C00CCF81010CCF8D9
S2144012201480D3F810E058699969CCF818E0CCF8E7
S2144012301C00CCF82010A570E570718920460B4B39
S21440124098476080FB6804AA42F8043D0123019356
S2144012500095FF2329463046054CA0473046054BAF
S214401260984705B0BDE8F083852640000515400048
S214401270651840002D2640002DE9F04385B006460F
S214401280884647683C7804F00F04A40065422DB2B7
S2144012902946454B9847A0B93389032B11D9736823
S2144012A01B78082B6FD1414B186800F0F009414677
S2144012B03F4B984758B9B9F1E00F08D03389072B10
S2144012C009D830463B4B984705B0BDE8F0833046DA
S2144012D0384B9847F8E73046374B984770B924B2B2
S2144012E022213046304B984730B3214630462E4B6D
S2144012F0984738B130462F4B9847E5E730462D4B58
S2144013009847E1E70022318902202C4B98478146D6
S2144013100028EFD031462A4B98470028EAD1D9F822
S214401320047029464846204B98470028E2D130466C
S214401330204B98474E4606E06FF0210130461A4B48
S21440134098470028D6D17268184B1B68FB601D4B27
S2144013501B683B610023137053884FF6F6718B422F
S2144013608CBF093308335380FF233B720023BB7284
S214401370FB7214213846144B9847788121463046F4
S214401380094B984718B130460A4B98479CE7CDF82A
S21440139008800123019300220092FF230349304630
S2144013A00A4CA047EFE700BFBF2540003839402031
S2144013B0A51840002D264000151540008526400003
S2144013C0812840003039402005154000691740000C
S2144013D008B50A460321014B984708BDCD11400089
S2144013E008B50A460B21014B984708BDCD11400071
S2144013F070B483B00023ADF8063010F0010630D04C
S21440140099422EDD451C03788DF8073001390129B5
S21440141029DD28460B46002230F8024B2244023B88
S214401420012BF9DC023921F0010302331D4401F09F
S2144014300101002902DD2B788DF80630BDF8060044
S214401440024490B200EB124290B200EB124026B13A
S21440145003029BB2C0F30720184380B203B070BCAF
S21440146070470546D3E70022E3E700002DE9F04742
S2144014708A469146984600283ED005460026344681
S2144014801E4F01E02D689DB169896868B8470444DD
S214401490A0B200EB14446B8913F0010FF2D0C6F1F2
S2144014A00106F6B223029BB2C4F307241C43E9E7C5
S2144014B026B123029BB2C4F307241C43DAF800206B
S2144014C0D9F80030180C10FA83F010FA82F000EBCE
S2144014D01240044440460A4DA8470444BDF8200044
S2144014E0A847204484B204EB1044A0B200EB14405A
S2144014F0C04380B2BDE8F0870024DFE7F113400028
S2144015009511400008B5024B9847C04380B208BDCD
S214401510F1134000F8B518B3054600263446114F7F
S21440152001E02D689DB169896868B847204484B257
S21440153004EB10446B8913F0010FF2D0C6F101069C
S214401540F6B223029BB2C4F307241C43E9E726B154
S21440155023029BB2C4F307241C43E04380B2F8BD89
S2144015600024FAE7F11340000E4B1B6873B90E4B8C
S2144015701B6833B193F82D2002F00102002A08BF01
S2144015800023184670471B68002BF0D093F82D2098
S21440159012F0010FF7D0026859684A4099680A422B
S2144015A0F1D1EEE754494020584940202DE9F84F04
S2144015B00546D0F8048098F800301A09042A04D06A
S2144015C05A4B98470020BDE8F88F0F4603F00F03AC
S2144015D09C00B8F80200564B984706466B89A342D3
S2144015E002D32B89834203D22846504B9847E9E7DB
S2144015F0214640464F4B9847A0B9314628464E4B69
S2144016009847D8F810204D4B1A60D8F80C204C4B11
S2144016101A603C460126DFF824A1DFF828B1DFF83F
S21440162044910CE02846414B9847CBE7002E50D0DB
S214401630D9F80040BC4208BF2468002694B194F80C
S2144016402D3013F0010FF1D014F1040FEED0636883
S214401650002BEBD0DAF80000834203D02146D8476F
S2144016600028E3D03946364B1868364B9847002852
S21440167031D1334B1B6803F0F003E02B2BD074B30F
S214401680B8F8063023F0C0039BB263BB2E4B1F60F6
S2144016902E4BC3F8008098F80930062B3BD0112B10
S2144016A02BD0012B3CD03946244B1868254B984705
S2144016B058B9224B1B6803F0F003E02B05D0C5F861
S2144016C0048002212846224B98472846174B9847C5
S2144016D017E02468AEE72846144B984772E728463A
S2144016E0124B98476EE728461A4B984705460028FF
S2144016F03FF468AFD0F80480C8E739462846164B12
S21440170098470023104A1360104A13600C4A13602F
S2144017100A4A136056E739462846104B9847F0E782
S214401720394628460E4B9847EBE700BF2D2640002B
S2144017309F11400005154000CD2740003839402015
S21440174030394020A5184000343940203C394020EC
S214401750D1134000151B4000B955400029404000B9
S21440176079124000544940202DE9F04F87B0054695
S21440177002919DF840809DF844B0129E0192002A46
S21440178057D09A4617461421324B984700285DD1C9
S2144017906C6884F808A084F809B03B6823619AB264
S2144017A003924FEA13494523237084F801804AEA9E
S2144017B00B2A4FEA082848EA03080AEB080B288950
S2144017C0254FB847824660800023A371E371DFF857
S2144017D09080B8F80000B847A080B8F800300133D1
S2144017E0A8F80030029B0BB11B6803BB7368E3602C
S2144017F0E2681BFA82F303EB1243039A13444B440A
S2144018009A4450441FFA80FA0AEB104000EB10400E
S214401810C0436081B38C13B12A899A4210D8736949
S214401820019A29463046984707B0BDE8F08FE360F6
S214401830DEE743681B6906AA42F8043D0192E9E7E1
S214401840019A31462846054B9847EDE76FF0010070
S214401850EAE700BFBF25400095114000791E4000D2
S214401860A80A4020F0B585B005460E4614461F46E9
S21440187010460A4B984770B102909DF82C30019361
S2144018809DF8283000933B46224631462846044C75
S214401890A04705B0F0BD6FF00300FAE769154000B9
S2144018A069174000431E13F1030F12D891F82D30EC
S2144018B013F0020F0FD04B6898420ED08A68434010
S2144018C013420CD1D24332EA00030CBF0120002061
S2144018D07047012070470020704700207047002066
S2144018E0704700002DE9F04F85B0019103680DF177
S2144018F0100C4CF8043D0C464FF00008C146274FEC
S21440190002F1010E4FF02E0B66469CF8003048461A
S2144019109A4600E02846A7FB0A31C90801EB810336
S214401920AAEB4303451CEDB230330DF1100A824456
S2144019300AF8083C01F0FF0A0029EBD186F800902F
S2144019400CF1010CADB108F10101424521DD02ABBD
S2144019501D18631E20449E1C15F8014903F8014FCC
S214401960984208D001317145F5D1002005B0BDE858
S214401970F08F4146264601F101088A420BDD741C71
S21440198086F800B004AB9C45BED100233370019866
S214401990ECE70020EAE70020E8E700BFCDCCCCCC5F
S2144019A008B510220149024B984708BDAC0A4020B2
S2144019B0E51840002DE9F04781468A4645686B6841
S2144019C09A8822B30024D9F804606EB1DFF8948078
S2144019D01F4F73681D683046C0470444A4B2304663
S2144019E0B8472E46002DF4D11A4B1B68994529D08E
S2144019F0D9F80030CAF8003049460420164B9847BC
S214401A00164A13881B1B13802046BDE8F0871B68C8
S214401A1043606A68034653F8081F5E689C68D86847
S214401A20116056609460D0601969116101212846A2
S214401A300B4B984728460B4B984784B22846044B96
S214401A409847C0E7D9F80020024B1A60D4E700BF99
S214401A502D264000C00A402075244000BC0A402085
S214401A60E11340002D2840002DE9F84305468846FE
S214401A700026194FDFF8649022E00134B8B193F89D
S214401A801FC0C27F944598BF18461A688AB1194647
S214401A9013465A697245F0D1D5F810C09A69624526
S214401AA0EBD1B3F80CC0AA889445E6D1EDE71846CA
S214401AB0EBE708B1C8470644464509DA012C07DD7E
S214401AC03B682BB1D5F80CE0002421462046E0E7E1
S214401AD03046BDE8F88300BFC00A4020B519400034
S214401AE00A4B186888B170B50024094E04E00568B2
S214401AF02146B047284638B1C37F002BF7D0013B7C
S214401B00C37704460068F6E770BD7047C00A4020B9
S214401B10B51940002DE9F04F83B007464668337844
S214401B2003F00F03052B22D1F088A04CA047834634
S214401B307088A047019096F800A038469C4B98477E
S214401B4080469C4B1B8803440A2B06DC9A4B1C6839
S214401B50002C79D0F268002514E001463046974BB9
S214401B60984720B1934B1B8843440A2BEEDD3846FA
S214401B70934B98474FF0000801E123682546002B19
S214401B8062D01C4663699342F7D13369A169994292
S214401B90F3D1A189B3889942EFD1002C53D0F08875
S214401BA0824B9847C0F30C00002800F08480814B9D
S214401BB01A889044A3F80080F38813F0200F0CD1C5
S214401BC0A37F43F00103A3770AF00F0A019BA3EB20
S214401BD08A0909EBCB0BA4F81CB07E687088DFF846
S214401BE0CC91C84796F8008008F00F08A0EB88080C
S214401BF01FFA88F8F088C847C0F30C00C000D7F832
S214401C0004C000238CF800308CF801308CF8023089
S214401C108CF80330ACF8040080441FFA88F8ACF81F
S214401C2006806268002A00F09A8053689988884245
S214401C30C0F0AD8000F09780DA88824200F2938050
S214401C404FF0010E78E02C4604205E4B98478146C4
S214401C5018B32022002148465B4B9847032389F857
S214401C601F30554B1A68C9F80020C3F800903268F8
S214401C707568B068F168C9F80820C9F80C50C9F80A
S214401C801000C9F814103269C9F81820B9F1000FCD
S214401C903FF46DAF25464C4689E741463046474BB4
S214401CA0984780453FF763AF0420464B98478146A8
S214401CB00028CED15BE7E0893C4B9847C0F30C0048
S214401CC000283FF474AF3268D6F804E0B068F16894
S214401CD0A260C4F80CE0206161613269A26166E7E7
S214401CE0CCF80060002B56D0D98881423BD89288E9
S214401CF0424538D31F60A37F13F0010F3DD0BEF19D
S214401D00000F3AD0606843689B88002B35D1DCF8DA
S214401D100030002B5AD05B689988BCF80620914268
S214401D202BD11A68002A51D05268D9889388994294
S214401D3023D11346F5E713461E6876B3726891883A
S214401D408842CDD388420ED0D68886420BD8002B08
S214401D50F1D0DB888B4218BF4FF0000EEBE74FF018
S214401D60010E6760C7E73846114B9847114A1388FB
S214401D70181A10803846124B98474FF000084046D5
S214401D8003B0BDE8F08F22680B4B1A6058E0CCF8E1
S214401D9000204FF0010E6760ADE7002BE1D01F60DA
S214401DA0DA88BCF804309A42E7D1A4E79F11400095
S214401DB02D284000BC0A4020C00A4020691A400036
S214401DC02D26400055244000257D4000A38B14332B
S214401DD0A38347683E68234653F8082FD3F804E0A9
S214401DE09868D9683A60C7F804E0B860F9601A693C
S214401DF03A61A08B184B984778800023BB71FB71E3
S214401E00BB72FB7214213846144B98477881D4F83D
S214401E1004807EB16FF0130BDFF854A0DFF85490C7
S214401E20776859463046D04731464046C8473E68B0
S214401E30002EF5D10A4B1B689C42A4D023682B6029
S214401E4021460420074B98474046074B9847074A89
S214401E501388181A108092E7951140000515400027
S214401E60C00A4020752440002D284000BC0A40206F
S214401E70BF2540004D2840002DE9F04F89B004466C
S214401E800390059106928E8CD0F804A0BAF806000E
S214401E903F4B9847C0F30C0B00F400530293258940
S214401EA0143DADB2A6F114030193002BB8BF07331F
S214401EB0C3F3CF030493002D63D0DB009BB207939C
S214401EC04FF0140949E02C46002221460120314BB0
S214401ED098470646002856D04B4622464168039807
S214401EE02D4FB84781441FFA89F9142130462B4BB1
S214401EF0984700283DD17368DAF80020DAF8047075
S214401F00DAF80800DAF80C101A605F609860D9605A
S214401F10DAF810201A6177684046DFF88C80C047B0
S214401F20F88004F1140080B2C04778800023BB726A
S214401F30FB72142138461A4B9847788105984369B6
S214401F40069A314698473046164B98472D1BADB2F9
S214401F50049B9B441FFA8BFB8DB1CBF30C08029B72
S214401F6043EA0808019BAB42ADDA48F40058079CA8
S214401F70AAE730460B4B98474FF0FF3005E000206D
S214401F8003E0002001E04FF0FF3009B0BDE8F08FDD
S214401F909F1140008526400031294000BF25400063
S214401FA0051540002D2640009511400008B5064B0B
S214401FB09847064B9847064B9847064B9847064B1C
S214401FC09847064B984708BD59214000DD234000FE
S214401FD08D244000B5554000012A4000E1204000D5
S214401FE070B504460E46154605201B4B98470028FC
S214401FF030D00146002303608660C5604460174BBE
S2144020001D68A5B16868844213D3201A48602A68C0
S214402010F2B15368984212D348685368C01A486071
S21440202013688BB15C68A0420BD31A46F4E718607D
S21440203070BD001B68600D60084B196070BD13468C
S2144020402A465C68201A586013680B60116070BDA1
S2144020502A46F9E770BD00BF55244000C40A402018
S21440206008B50A4B1B6853B9094B1B6843B101229C
S214402070064B1A6000220749FA20074B984708BDCE
S214402080064B1B68002BF2D1F9E700BFC80A402078
S21440209064494020A1204000E11F4000784940208C
S2144020A008B5094B9847094B1B682BB100220849D5
S2144020B0FA20084B984708BD074B1B68002BF5D104
S2144020C00022064B1A6008BD953340006449402004
S2144020D0A1204000E11F400078494020C80A402027
S2144020E010B5002207494FF47A70074CA0470022EB
S2144020F0064941F28830A047054B9847054B186083
S21440210010BD00BF39214000E11F400019214000AA
S214402110B9674000CC0A402008B5044B98470022D7
S214402120034941F28830034B984708BDBD584000EC
S21440213019214000E11F400008B5044B9847002293
S21440214003494FF47A70034B984708BDE11A4000A4
S21440215039214000E11F40000A4B23F003030A4A9E
S21440216013604FF48051198000225A801A715A1811
S214402170064802600120107111805180044A1360A5
S214402180704700BF43394020D40A4020D80A402038
S214402190D00A402000283BD00346214A126890428D
S2144021A036D320490868834232D270B4A3F108017E
S2144021B0002403F8044C1C4C2468A14201D21A4C5B
S2144021C0216033F8085C5419A1420ED0267966B9CE
S2144021D0A0420AD01448006884421AD0505B23F8C4
S2144021E0080C505B10448C1A448033F8060C1418C4
S2144021F0A1420CD0257955B90B4D2D68A9420BD07C
S21440220033F8081C115233F8083C1A44508070BC0E
S214402210704705480160E1E703490C60F0E700BFFE
S214402220D40A4020D80A4020D00A402003314FF636
S214402230FC730B400C2B38BF0C23B3F5805F52D891
S2144022402B4A126882422BD82A490968884227D2EC
S214402250F0B4A0F10804A41AA4B230F8085CA5F1C2
S2144022600801091B89B299423FD318D056193779CD
S214402270DFB9555B04F108010B449BB21E4909685F
S2144022808E420ED0D11800260E71D5524C8020F8C2
S214402290083CD15AB1F5805F01D00A445380F0BC67
S2144022A07047D118144E3160ECE703F114058D42A7
S2144022B0F5D804F108010B449BB2D1180E4D2D6899
S2144022C0A94201D20C4D296000250D7130F8085CFA
S2144022D0D5524C8020F8083CD15AB1F5805FDED00C
S2144022E00A445380DBE7002070470020D7E700BF52
S2144022F0D40A4020D80A4020D00A4020002861D086
S214402300F0B5034603334FF6FC741C400C2C38BF24
S2144023100C24B4F5805F57D82D4B1F682D4B196899
S2144023207B1A9BB2C4F58055AB424FDA6FF0070C70
S214402330A6460EE001230371254B1B6898422FD01A
S2144023400830F0BD034638E0034636E00388AB422B
S21440235036DAC8180279002AF8D1ACEB0302CE5A16
S21440236032447646A242F1D31436B242E2D304F166
S21440237008021A4492B28C180025257105888D52A1
S21440238063800280012303718B5AB3F5805FD3D0FC
S21440239019444A808742D3D10379002BD2D00346D2
S2144023A00D4A11688842CFD00A4A14681B882344D5
S2144023B01A7912B18B42F9D10B46054A1360BFE732
S2144023C00020F0BD002070470020F0BD0020F0BD8A
S2144023D0D00A4020D40A4020D80A40202DE9F047B1
S2144023E0184F27F00307184EDFF860C0DFF860E0AC
S2144023F006F1200A4FF0000915E003461960581907
S2144024000132194693B29C42F7D8013CA4B204FB71
S214402410055304FB0574C8F800401F4404360EF10B
S214402420020E56450CD0B046C6F800903CF8024F17
S214402430002CF3D0BEF800503B4600221146DDE7A4
S214402440BDE8F087DF0A40209C254020CEE84000CB
S214402450E0E84000072800D9FEE7054B53F8203057
S2144024601BB11968024A42F820101846704700BF50
S2144024709C2540200B4629B1034A52F8201019608B
S21440248042F82030704700BF9C254020704700002F
S214402490F8B50446002927D00D460A6843689A4294
S2144024A011D0124B186858B1114F03E0C668B847B0
S2144024B0304628B1026863689A42F7D0C068F8E7A9
S2144024C00C4B1B682BB92B686360F8BDDB68002B90
S2144024D0F9D0002BFAD01A68002AF7D061688A42F1
S2144024E0F4D12A681A60F1E70023EDE764494020FA
S2144024F0653440006C49402070B5044616461D467B
S214402500064B98472EB13368A36025B12B68E3602D
S21440251070BD0023F8E70023F9E700BF9124400090
S214402520F8B50446002545608560C56080F82D50A6
S214402530C561069D05620B4E35786F1C377080F876
S2144025403050089D0561084DA8472046079B984790
S21440255028B9064B1A6822601C602046F8BD002049
S214402560F8BD00BFBC254020F92440005449402017
S214402570014B1860704700BF5849402090F82D30F6
S21440258013F0010F14D110B5044643F0010380F850
S2144025902D30C36903B1984794F82D3003F03003CB
S2144025A0302B00D010BD211D2046024B9847F9E73E
S2144025B0704700BF0559400000B1C161704769B31C
S2144025C00B4658B310B4002911DB8CB2017B42682D
S2144025D099B1032911D0013989B2012922D8002B9B
S2144025E020DA4189A1421FD3D21A42600BE04C4206
S2144025F0A4B24289A242E9D2FEE7D21A00F1100103
S2144026008A420DD342609BB242891A444281028973
S2144026101344038100205DF8044B70470020704748
S2144026200120F8E70120F6E70120F4E72DE9F04124
S214402630F8B101460024114D4FF00608104E08E050
S2144026400720B04701E04046B0470134E4B239467F
S21440265087B1CB89013B9BB2CB815BB90F680B7BC3
S214402660032BEDD0013B9BB2012BECD90846A84783
S214402670EBE700242046BDE8F08100BF95214000EE
S214402680752440002DE9F047032800F29380DFE8E8
S21440269000F008020406222404E00E2402E000248F
S2144026A000E0362417468846032A00F28580DFE895
S2144026B002F0527272020720404B984706460028A6
S2144026C03DD003230373002303600319133323F021
S2144026D003034360A0F80880033424F00304C4F5E1
S2144026E0C0644445A8BF444644810123C381A5B283
S2144026F0A8EB0505002D47DD82464FF007082F4F13
S2144027004FF003094046B8470446E0B180F80C90C5
S214402710002343730360CAF80000ABB20381B3F5ED
S214402720C06F28BF4FF4C063438100F1100242607F
S2144027300122C281ED1A8246002DE3DC24E001220C
S2144027401F4B1A7024E001221D4B1A7030461D4B59
S214402750984726461CE004F1130020F00300CB1CEB
S21440276023F00303184480B2174B9847064678B1C7
S2144027700444133424F003044460A0F80880A0F80E
S2144027800A800023036003730123F38100237373DD
S2144027903046BDE8F0870620084B98470646002896
S2144027A0F6D000234360A0F80880A0F80A800360B3
S2144027B00773E9E70026EBE70026E9E755244000E3
S2144027C05C4940202D264000FD22400002898A4276
S2144027D026D938B50446438999421FD90D46891AE9
S2144027E0EB1A9DB223890B44238124686389AB424C
S2144027F0F6D3227B4AB99D4207D063681B1BE91873
S21440280089B22046074B9847044665812581206853
S21440281008B1054B98470023236038BD0D46E8E7CE
S214402820704700BF2D2240002D264000034630B1A1
S21440283000200130C0B21B68002BFAD17047002040
S214402840704710B1C3890133C381704730B1024627
S21440285021B110B403681BB9034609E0FEE70346FE
S21440286010890C892044108118681A460028F6D131
S2144028701A89088902441A8119605DF8044B70472A
S214402880002851D02DE9F0470D46044619B102897B
S2144028900B899A4200D2FEE74FF0000A5746DFF80F
S2144028A08C90D0460FE0DB1B9EB214E06389BB429F
S2144028B022D065B36A892B899A4223D01CB162899B
S2144028C023899A4228D063896A89D81BA2EB0A01D9
S2144028D08842E8DB8EB260686968324651443844C4
S2144028E0C8473744BFB256441FFA86FA6B895345E9
S2144028F0DCD82D68C246D9E7246804B90DB94746E6
S214402900D7E7FEE72B68002BD8D0FEE7FEE744B1BA
S214402910628923899A4204D12368002BF6D1002D80
S214402920D1D10020BDE8F087FEE700BFF17B400034
S21440293058B12DE9F0470F469246054651B12AB1A7
S2144029400026DFF85490B0461DE0FEE716463046B7
S214402950BDE8F087FEE76C89E41AA4B2544528BF68
S2144029605446696822461944B819C8472644B6B240
S214402970AAEB04041FFA84FA43462D68BAF1000F06
S214402980E5D0002DE3D0002BE5D06A899A42E2D804
S2144029909B1A9BB2F1E700BFF17B40006FF0090045
S2144029A070470000F0B4144B1B884FF480424FF63B
S2144029B0FF774FF44046114DBB420CD0581C80B2B6
S2144029C0002155F821301C683CB901310429F8D162
S2144029D0094B18800BE03046F2E7638B834208D100
S2144029E0013A92B2002AE7D1034B18800020F0BC8F
S2144029F07047E468E8E700BF0C00402000E940006C
S214402A0070470000F8B5037E03B1FEE704460D4666
S214402A10AAB11B4901F1100751F8043B1B68CBB91A
S214402A20B942F9D115B12B6803B123606283154BC7
S214402A301A68E2601C60144B98470020F8BD134BA0
S214402A40984702460028E4D16FF00100F8BDDB68E5
S214402A50002BE5D0588B9042F9D153B11E685DB13A
S214402A6056B12868864201D00028F0D16FF00700A2
S214402A70F8BD6FF00700F8BD6FF00700F8BD00BF67
S214402A8000E940007449402061204000A5294000EC
S214402A9038B5037E03B1FEE704460220244B984730
S214402AA00546002841D023690361638B4383012395
S214402AB00376637E4376237A43F002030372A37A57
S214402AC08372637A437223680360638B43B1194B06
S214402AD01B689C4212D1DA68164B1A600023E360EA
S214402AE021460120144B9847144B6B61144B1A68CF
S214402AF0EA601D60134B9847284638BD124A13605B
S214402B00002BEBD0DA68944206D1E268DA60E5E75B
S214402B10D3689C4205D01A46002AF9D10A4B1A605F
S214402B20DCE7094B1A601346EFE7002038BD00BFCC
S214402B305524400074494020752440009D2940009B
S214402B406C494020612040007049402070B40246E5
S214402B50856A848D016B6319581AD38E40F2B45639
S214402B60B34294BFC31A831B002B02DBD48570BCD0
S214402B7070476B1A002B03DD0023D3851846F6E713
S214402B80491BD1850020F2E710B50446838D1944D1
S214402B9089B240F66833994208D881852046094B69
S214402BA0984740F2D923984204DC10BD40F668337B
S214402BB08385F3E7A37F43F00203A3772046024BC7
S214402BC09847F2E74D2B40001550400050B110B5E5
S214402BD00446406808B1044B984721460320034BFF
S214402BE0984710BD704700BF2D2640007524400012
S214402BF048B138B50346044D1C681846A8472346D6
S214402C00002CF9D138BD7047CD2B40004176704737
S214402C1038B505460320084B9847044650B1286807
S214402C206968AA68EB6820606160A260E3606068DB
S214402C30024B9847204638BD552440004328400064
S214402C4001617047C0F880107047C1677047C0F890
S214402C508C10704741617047C0F8881080F820207B
S214402C6070470000037E0A2B1AD0012B18D970B586
S214402C700446806F18B10B4B98470023A367606FDC
S214402C80094EB047002565674FF6FF73A386E06E92
S214402C90B047206FB047E5662567A4F86A5070BD18
S214402CA0704700BF2D264000F12B40002DE9F04F25
S214402CB083B0B64A136801331360B54A13780133BC
S214402CC013701546B34FDFF800B3B34B1C68002CA7
S214402CD000F07E81002603E0E468002C00F0788156
S214402CE02B7894F821209A42F6D084F82130227E20
S214402CF0022A24D094F846300C2B61D094F8958064
S214402D00B8F1000F27D094F894300133DBB284F842
S214402D109430A24A424412F8012C9A4271D80023B9
S214402D2084F89430B8F1060F03D808F1010884F807
S214402D30958020469A4B98474FF0000842E094F81A
S214402D404630062B00F08D800C2BD7D14FF0000973
S214402D504FF001088CE0B4F93410002901DB013152
S214402D60A186216F71B3B4F93400B4F94410884297
S214402D7028DB022A0BD0B4F94010B4F9422002EB0B
S214402D80E1028849CB5C02FA03F3A4F844300023FE
S214402D90A386B4F86030B4F84C20934228BF13465C
S214402DA05B08A4F84E30E28EB3EB420F02DA5300D3
S214402DB0A4F84E30A4F84C2020467B4B984701E0C0
S214402DC04FF00108237E062B1ED0227A12F0080F01
S214402DD04CD0042B01D0072B7CD16C4B1A68636A0D
S214402DE0D21AD4F89010714B0B44ABFB0303B2EBF2
S214402DF0531F1ED908F101085FFA88F84FF0010901
S214402E0036E04FF00008DDE7A37F13F0100F09D03F
S214402E105E4B1B68626A9B1A282B03D908F101088F
S214402E205FFA88F8606F002800F0F4804FF00009E1
S214402E3020E094F896305E4800FB0313ABFB031388
S214402E40B2EB531F02D84FF0000911E02046594B11
S214402E50984794F89630013384F896304FF000093E
S214402E6006E04FF000094FF0010801E04FF000097E
S214402E70606F50B1454B1A68636AD21AB4F9443051
S214402E8003EB4303B2EB430F27D2237E032B29D019
S214402E90092B32D0B8F1000F3AD1D4F80C80E37F3A
S214402EA00133DBB2E37794F820209A426AD80023B5
S214402EB0E3773B70D4F88830002B5BD021462069FE
S214402EC098473B78002B7FF400AF002852D0264628
S214402ED0444602E74FF00009CAE7374B98470023BD
S214402EE06367D2E7294B1B68626A9B1A282BD1D9A5
S214402EF008F101085FFA88F8CCE7244B1B68626A41
S214402F009B1AF02BC6D908F101085FFA88F8C1E78A
S214402F1020462A4B9847EEB1E368F360B9F1000FBC
S214402F201CD1D4F88C80D4F810A0D4F80C9021464C
S214402F300120234B984700233B70B8F1000F1FD069
S214402F406FF009015046C0473B78002B7FF4BDAE7A
S214402F504C46C2E6E368104A1360DFE7A16A206D7C
S214402F60A38B0193638B0093231D2246DFF85C807E
S214402F70C047D6E72046134B984726464446ACE61D
S214402F804C46AAE626464446A7E600BF6849402087
S214402F90BE254020604940206449402010E940005A
S214402FA0ED544000F0E8400091534000B84C0A0011
S214402FB0F824010081544000F12B4000652C40006D
S214402FC07524400015504000D34D6210ED5240002D
S214402FD0134B1C680CB30025124EDFF85080124F7E
S214402FE006E0E2680E4B1A600DE02546E468A4B1A0
S214402FF0626A33689B1AF02BF7D92046C047002DEB
S214403000EFD0E368EB60D4F80C9021460120B84737
S2144030104C46ECE74FF000093CE703B0BDE8F08FC4
S214403020784940206849402075244000652C40007F
S21440303010B50C4602688A420BD0184B1A607AB11B
S214403040D36899421DD0F3B1DA68944204D013464F
S214403050F9E7D368036003E0104A1360E268DA6079
S2144030600023E36020460E4B9847237E0A2B05D06C
S214403070012B03D0A37F13F0010F08D10023237642
S21440308010BD1346EAE70022044B1A60E8E743F017
S2144030900203A3772046034B9847EFE7704940204A
S2144030A0652C40001550400030B583B0044621B131
S2144030B0037E042B0BD0072B09D0237E072B00F270
S2144030C0B080DFE803F04E757F8B9AAEAEA3A36F59
S2144030D0E3B1A38B0193638B0093231D2246A16A21
S2144030E0206D514DA8472046504B9847504B1A6884
S2144030F0944211D04F4B1A60AAB1D3689C4220D05C
S2144031000BB3DA6894420AD01346F9E7A28D40F62C
S21440311068339A42DDD1D0E7D2681A6003E0454A68
S2144031201360E268DA600023E3600122424B1A70C3
S214403130237E042B0BD021460120404B984700238A
S21440314058E01346EDE700223A4B1A60EBE70A23B5
S21440315023763B4B1A68E2601C603A4B9847002344
S21440316048E0638BC3B1384B1A6894420BD0314B5E
S2144031701A607AB1D3689C4214D0ABB1DA689442F4
S21440318004D01346F9E7D2681A6003E0294A136070
S214403190E268DA600023E36021460120274B984727
S2144031A0002327E01346F3E70022224B1A60F1E79C
S2144031B021462648264B9847214602201F4B9847D3
S2144031C0002317E021461A48214B984701201A4B06
S2144031D018702146194B984700230BE020461D4B9C
S2144031E09847034630B905232376C4B120461A4B88
S2144031F098470023184603B030BD2046154B9847E5
S21440320003460028F6D105232376EEE72046114BE9
S214403210984703460028EDD109232376E5E70023A7
S214403220E8E70023E6E700BFED524000652C40008B
S2144032306449402070494020604940207524400041
S2144032407849402061204000744940206C49402025
S214403250313040004D4F40001550400008B5037EC9
S214403260012B03D0837F43F0100383770121014B6A
S214403270984708BDA930400010B5084642B11446EC
S2144032801189064B98472046054B9847002010BDAD
S2144032900BB1002010BD034B984710BD892B400052
S2144032A02D2640005D324000F8B50446866F777B99
S2144032B000238367D0F88050E5B132460146006966
S2144032C0A8470546F5B917F0200F20D0A38D40F645
S2144032D06832934201D00133A385D4F88060B6B1FA
S2144032E000231A4621462069B04710F10A0F08BF4E
S2144032F005460CE00023324601461846054DA847D1
S2144033000546DFE715F10A0F01D0A66700252846D7
S214403310F8BD00BF793240002DE9F843184A1378CB
S21440332001331370174F1546DFF86480164E3C681D
S2144033301CB32B7894F821209A4200D1FEE784F8FB
S2144033402130A37F13F0010F0DD1D4F80C90A36F5A
S2144033503BB10023337020460C4B98473378002B04
S214403360E5D14C46E4E743F00203A3772046C04746
S214403370A37F23F00303A377E7E7BDE8F88300BF06
S214403380BE2540206449402060494020A932400084
S2144033901550400008B5074B9847074A1378013345
S2144033A0DBB2137013F0010F00D108BD034B9847F2
S2144033B0FBE700BF19334000BD254020AD2C400040
S2144033C02DE9F04383B00446037E0A2B27D00E46F1
S2144033D0D0F85080D0F82890D0F88C500769014635
S2144033E019481A4B98470122194B1A70206F08B19A
S2144033F0184B9847E06E08B1164B9847606F08B177
S214403400144B9847A6B921460120134B98471DB147
S2144034106FF009013846A84703B0BDE8F08301467F
S2144034200E480A4B9847214601200B4B9847F3E736
S214403430A38B0193638B0093231D22464946404647
S214403440074EB047DFE700BF6449402031304000B8
S21440345060494020F12B40007524400078494020C8
S214403460ED52400008B50121014B984708BD00BF0A
S214403470C1334000034B1868034A12681044186072
S214403480704700BF0800402068494020F8B5054610
S21440349001203D4B98470446002839D09822002109
S2144034A020463A4B9847657640F66833A4F866302F
S2144034B00025A4F86850A385E3856572FF23A372B0
S2144034C04FF40673E3860623A4F84430A4F840502D
S2144034D0A4F842304FF6FF73A3860123A4F84C307D
S2144034E02B4B9847A0652065A064E065294B1B6878
S2144034F06362294B1B7884F82130E577274BC4F864
S2144035008030274BC4F8903084F896502046F8BD5B
S214403510244B1B6883B11F4A1068002101E0DB681A
S21440352033B15A6A821A8A42F9D311461C46F6E7E4
S21440353014B120461C4B98470120134B984704462D
S2144035400028ABD1194B1B68BBB1124A176800263E
S2144035507F2001E0DB6863B15A7E9542FAD382420F
S214403560F8D8596A791AB142F4D310460E461C462A
S214403570F0E714B120460C4B98470120024B984781
S21440358004460028C2D089E755244000257D4000E7
S2144035907534400068494020BE25402079324000BE
S2144035A000DD6D0078494020653440006449402085
S2144035B008B54020014B984708BD00BF8D344000F9
S2144035C010B504460846074B984738B1808C38B14A
S2144035D0283880B2A04228BF204610BD204610BDE5
S2144035E0204610BD69154000F8B50546224B1C68BC
S2144035F0A089224B9847C0F30F30052800D8F8BD65
S2144036001D4B1B6898891D4B9847060B053EB60018
S214403610B6B2002EF3D004F11402002340F2B357A2
S21440362040F2B45403E001339BB29E42E7D91846B9
S214403630D15C0129F7D00029E1D0022906D01044F8
S21440364041780029DBD00B449BB2EEE7D11849788D
S2144036500429D4D1191DB142D1DC104490F802E0BF
S214403660C17841EA0E21481E80B2B84288BF214642
S214403670E98604339BB2D8E7E42540209F114000FA
S2144036802DE9F04705468946C3689889294B9847EF
S21440369010F0010F27D1B9F1000F49D0D9F80C200E
S2144036A02B8951685B1A244909680B44B9F80810FD
S2144036B05B1A002B04DB1F4FDFF88C801F4E28E080
S2144036C04C461D4B1968E3685A682B890B449B1A75
S2144036D0002B05DD521A91B229816868184B98472D
S2144036E02C60BDE8F0874846164B98470024F7E71D
S2144036F0D9F800404846B047D4B1E2682B890E4915
S21440370009680B4451685B1A21895B1A002BD8DB89
S214403710A1469089B84710F0010FE9D0D5F80CA023
S214403720BAF80C400120C0472043AAF80C00DFE757
S2144037300024D5E79F114000E0254020CD2B4000D7
S214403740CD274000F12B4000951140002DE9F04771
S2144037500446AA4B1B7813F0100F00F06B81B0F8AC
S2144037606050806D626DA64B1B68D11A002928DB1D
S2144037709A421BD0A34A126890421DD0A14B1A68A9
S214403780A36CD11A002941DD012903D4216D511AB9
S21440379000296EDD0023A4F86430E36E002B00F0B1
S2144037A04181984EDFF87882974FF8E0954A126844
S2144037B0821A002ADEDA04E0944A1268D289AA42C3
S2144037C0DCD9924A1268D1898EB2A4F86010D289A8
S2144037D091B2B4F862708F4238BFA4F86220636535
S2144037E0884B1B68A3654EB994F89530002BC5D11D
S2144037F084F89430012384F89530BFE794F89530E8
S214403800002BBBD0002384F89530B7E70021A4F8FE
S21440381064107F49098831B92844B4F86010A56D12
S2144038202944884203D0002384F84730B5E7A18E68
S21440383011F4004FF7D19A42F5D194F84720531C23
S214403840DBB29A4238BF84F8473094F84730032BAF
S21440385009D9B4F84C20E38E13449BB29A429CD2CA
S214403860A4F84C3099E7032B97D12046694B9847EC
S21440387093E7A17F11F0040F06D021F00401A17751
S214403880B4F84E10A4F84C10002084F84600B4F962
S2144038904050B4F8421001EBE501A4F84410D31AA6
S2144038A09BB2A4F86430B4F866100B44A4F86630B3
S2144038B084F84700A264237E032B0CD9B4F84C202E
S2144038C0B4F84E3093420ED9E38E13449BB29A42DC
S2144038D038BFA4F84C30236F002B4BD0DFF8408124
S2144038E0494E484F18E0E38E03FB03F393FBF2F395
S2144038F013449BB29A42EED2A4F84C30EBE7686889
S214403900454B9847B4F86830181AA4F8680028461B
S214403910424B9847236F6BB3DB685868C0470546F1
S214403920236FB3F80890DB689889B04710F003001F
S21440393018BF012048443B68ED1A2844002812DC92
S214403940256F2B682367B4F86430002BD7D0EB681C
S2144039509889B04710F0010FD1D0B4F86430013BDD
S214403960A4F86430CBE7236F23B10023A38600235B
S214403970E37712E74FF6FF73A386F8E7A4F86A30BA
S2144039802CE06868244B9847B4F86830181AA4F8B6
S21440399068002846214B9847E36E002B42D0356896
S2144039A0DB685868C0478246E36EB3F80890DB6829
S2144039B09889B847A5EB0A0510F0030018BF012008
S2144039C048442D1A002D2DDB3368226D9B1A002BA0
S2144039D028DCE56E2B68E366002BCFD0B4F8643065
S2144039E0002BCED0EB689889B84710F0010FC8D0AE
S2144039F0B4F86430013BA4F86430C2E7C4254020E4
S214403A00E0254020C02540209F114000E42540206E
S214403A10E8254020215440002D284000CD2B400072
S214403A20C1114000A36B2BB1E26B9F490968521A43
S214403A30002A23DB9D4B1B88002B00F05C82227EF5
S214403A40062A00F25882A16A994A12688D1A012DF8
S214403A5005D4C2F10100C31A0B44002B2FDD531AC4
S214403A60002B56DBA38DC3F1010313445B1A002BD6
S214403A7054DD20468F4B9847BDE8F087B4F9401098
S214403A808D4A1268D31AA3EBE1039BB218B25A18B8
S214403A9012B2A4F8402000280EDBB4F94230A3EB63
S214403AA0A30303449BB2A4F8423003EBE203A4F81A
S214403AB044300023A363BDE75B4218B2EDE72B46D4
S214403AC07E4A5068428995421EDD0189491B89B26B
S214403AD000259B1A01814581006842899A42F8DB9D
S214403AE05B4219B2764B9847A26A7449704803689D
S214403AF00D892B449B1A0B81CB6802605A60A16AE1
S214403B00531A002BAEDAB4E7694209B26C4B9847B9
S214403B10EAE7A37F43F00203A377AAE78A4213D0DB
S214403B202046644B9847666F002E00F02D81F16862
S214403B304A685F4B1868824200F02C81002700F1EB
S214403B40FF3E00F1010C48E15C4B1D89DB6898891B
S214403B505C4B984710F0030318BF01232B449BB2DD
S214403B60524A1380A28D9A4217D3636F002B00F0FF
S214403B70EF81524BDB689889524B984710F0010F03
S214403B8042D0606F002800F0E3814F4D03686367C2
S214403B90A847606F0028F9D1DAE1484BDB6898897E
S214403BA0484B984710F0010F1FD1444BA28D1A8105
S214403BB0DB689889434B984710F0020F03D03F4A82
S214403BC01389013B13813D4D298968683F4B9847CF
S214403BD02E89EB6898893B4B984710F0030018BF36
S214403BE001200644314B1E80BFE7344BDE68B58962
S214403BF02846344B984700F03E00354B984725F40E
S214403C007C550543B581D0E7D4F87490B9F1000FE0
S214403C1000F09C81D9F80C20244B1B882449096865
S214403C200B4451685B1AB9F808105B1A002BC0F2B7
S214403C30C081244E214FDFF8988015E0D9F8005017
S214403C404846214B9847002D00F08081EA68174B84
S214403C501B88174909680B4451685B1A29895B1A07
S214403C60002BC0F2A781A9469089B04710F0010FFB
S214403C70E4D0FB689889B04710F0020FDED1D7F841
S214403C800CA0BAF80C500120C0472843AAF80C00F4
S214403C903D89FB689889B04710F0030018BF0120A3
S214403CA00544024B1D80C9E7C0254020E82540203A
S214403CB0E02540209D4F400068494020C8254020D0
S214403CC0BF2540009F114000CD2B4000CD2740002F
S214403CD095114000914B196000236B60EB68988902
S214403CE0B04710F0010F07D08D4A137843F02003F9
S214403CF01370237E042B34D02B6863672846894B89
S214403D009847656F002D2FD0EB685A68A16A8A42A3
S214403D102AD1C8F80020B5F808909889B04710F026
S214403D20030018BF01204844A36A1844A062B5F8AF
S214403D300890EB689889B04710F0030018BF012040
S214403D404844A38D181AA0852046B84769680B8951
S214403D50002BC3D0714B18680028BBD0724B9847D5
S214403D60BAE707232376C7E7A37F13F0010F06D0F1
S214403D7023F0010343F00203A377BDE8F08743F046
S214403D800103A377BDE8F0876848694B98476067AA
S214403D90BDE8F08735460026644B1A892B899A423F
S214403DA04FD96248624B98470346002849D036B1FF
S214403DB03060294618465F4B9847BDE8F0876067F5
S214403DC0F7E7831A002B2FDB3568002D36D0E968DD
S214403DD04A6837468242DFD02E46002FF1D0FB6835
S214403DE05B68AEEB0303002BEEDBACEB0203002B71
S214403DF0EADC4E484E4B9847044610B3FB68596879
S214403E004D4B1B683A890A44D21A002A05DD5B1AD4
S214403E1099B239817868494B98473C60314620468C
S214403E20444B9847BDE8F0874048414B984740B1DF
S214403E30606731463F4B9847BDE8F087821A002AB4
S214403E4001DCBDE8F08788893D4B984710F0010FAC
S214403E50F7D13648364B984730600028F1D0F368A3
S214403E605968354B1B6832890A44D21A002A05DD48
S214403E705B1A99B231817068304B9847314B1A883B
S214403E802D4B1B681A44A38DA16A0B449A42D8D97D
S214403E903368DB6898892A4B984710F0010F1BD18E
S214403EA03268254B1968A38D5B1AA16A0B441381AF
S214403EB0336819895868214B984733681C89DB68F2
S214403EC098891F4B984710F0030018BF0120044400
S214403ED01C4B1C80BDE8F0873368DF68BD892846E8
S214403EE0174B984700F03E00174B984725F47C55F3
S214403EF00543BD81D4E7104B1B68A26A991A002976
S214403F0005DB01339B1AA28D9B1A002B99DDA37FFC
S214403F1043F00203A377BDE8F08700BFD8254020D2
S214403F20DC254020CD2B40004D284000C8254020B1
S214403F30112C400081364000E0254020CD2740002F
S214403F409F114000E82540209511400000256567F8
S214403F502D4B1A882D4B1B681344A362A38D9B1AC6
S214403F60A38520462A4B98472A4B5B681A8922B17C
S214403F70294A13600022274B5A60264BDB689889F3
S214403F80264B984710F0010F04D0254A137843F08B
S214403F9020031370656F002D3FF4E6AEEB685A6859
S214403FA0A16A8A427FF4E0AEDFF860801B4E184F6D
S214403FB0AFE64D46154B1968EB685A68124B1B889E
S214403FC00B449B1A002BC2DD124B521A1A81DB6837
S214403FD09889124B984710F0020F03D00D4A138968
S214403FE0013B13810B4E318970680E4B98473789D9
S214403FF0F3689889094B984710F0030018BF0120D2
S2144040000744014B1F80A2E7E8254020E0254020DA
S2144040104D2B4000C8254020D82540209F11400009
S214404020DC254020CD2740002DE9F04383B00446F0
S2144040300D464368197801F00F0103EB8103854A6A
S214404040136089004942844B984710B92389132B43
S21440405005D82046814B984703B0BDE8F0832946F3
S2144040607F4B18687F4B98470028F2D17C4B1B68E3
S21440407003F0F003E02BECD0238900930623784A24
S21440408079492046794DA8470028E2D1714B1B68F4
S2144040909889774B9847000BC0EB8030810009B277
S2144040A020466D4B98470028D3D16A4D2F683888F4
S2144040B06F4EB04738802F687888B04778802F6832
S2144040C07868DFF8EC81C04778606A4B18602F68E4
S2144040D0B868C047B860684B18602F68F889B04722
S2144040E0F8812B689889B0475FFA80FE0EF03F0251
S2144040F0624B1A701EF0030318BF012321890B443C
S21440410099B25F4B19805F4B1868002800F0858095
S2144041102F683E88544BD3F800C0514BD3F80080EC
S2144041200546002204E0EB682A46002B75D01D4663
S214404130AB8BB342F7D1B5F81A907B889945F2D14C
S2144041406B686345EFD12B684345ECD122B1EB68F1
S214404150D360E8604B4B1D60002D5ED04A4B00227A
S2144041601A60218919815C60DF60484B1A60484BB1
S2144041701A701EF0080F03D0637B43F0010363738D
S214404180AB6F5BB12846434B984710F10A0F34D0CB
S214404190AB6F1BB13A4B1B88002B2ED13E4B1D609C
S2144041A0364B1B7813F0040F00F04E812B7E022B0B
S2144041B000F038812F4B1B68AA6A9B1A08D4AA8D38
S2144041C09B1A002BCCBF00230123002B40F03281EA
S2144041D02F4B1B7813F0080F00F07D83D5F88C30FA
S2144041E01BB16FF00A0128699847294625482B4B92
S2144041F09847294601202A4B98470023264A1360B1
S214404200224A1360204B586800283FF425AF134BD2
S214404210984700221C4B5A601EE7224B186800281D
S21440422073D00C4B1F683A880F4BD3F800800C4B6A
S214404230D3F800C040E01EF0010F02D01A4B1B68B6
S214404240436200295DD0837F43F002038377174B98
S214404250984756E0E4254020BF2540002D264000E4
S21440426038394020A5184000303940206D144000B1
S2144042709F114000E0254020C0254020C425402016
S214404280E825402064494020C8254020D8254020C5
S214404290DC254020A93240007C4940203130400097
S2144042A07524400078494020684940201550400019
S2144042B0C1114000C06840B3838B9342FAD1458B0E
S2144042C07E88AE42F6D146684645F3D106686645D6
S2144042D0F0D11EF0040F14D11EF0020FABD07E4A70
S2144042E01668826AB21AACD4878DD21B002AA8DC24
S2144042F001930095794B7A4A31447A4800687A4D62
S214404300A8472046794B9847A6E6794BD3F800C095
S214404310BCF1000F00F04B83764B1F687888704BDB
S2144043201E686546002205E0EB682A46002B00F032
S2144043303E831D466B8B8342F6D12B68B34202D038
S2144043400DB1002BF0D1002D00F031832AB1EB687F
S214404350D360C5F80CC0664B1D601EF0040F05D137
S2144043601EF0100F06D11EF0020F11D120465F4BF3
S214404370984771E6584B18683B8801937B880093B2
S214404380564B574A014457480068574DA847EDE7F3
S214404390687E594B984706460028E7D0504B1B6826
S2144043A003606B8B43834D4B1B684360514B1A68CD
S2144043B01388838303230376474B1B68591C81620B
S2144043C00163D189A0F86010D289A0F86220A0F8D5
S2144043D04E10013B43652B6903616B6943612B7A41
S2144043E023F073030372454B1A68C2601860444B4F
S2144043F098470122434B1A703046434B9847311D2D
S214404400F08E424B9847F08612213046404B9847F4
S21440441018B930463F4B9847A8E7002130463E4BF8
S2144044209847A3E72B6D2F4A1268934214BF002388
S2144044300123CAE6394A137843F008031370AB7F6A
S21440444023F00103AB77C3E613F0020F09D02B7EAF
S214404450023BDBB2012B04D9AB7F43F00203AB77C0
S214404460B6E6AB7F13F0100F02D12D4B1B686B6284
S214404470002385F896302846234B98472B7E023BF0
S214404480072B3FF6A5AEDFE813F00800A8000601AC
S21440449016016F010601D4011102224B1B7803F06E
S2144044A01203122B42D01F4B1B7813F0100F3FF411
S2144044B08FAE104B1B681C4A1088074A11681A8832
S2144044C001925B880093054B054A01440548006805
S2144044D0054CA0477CE600BFE02540203039402010
S2144044E038394020C0254020ED5240002D2640005F
S2144044F06C494020E42540208D34400064494020EB
S2144045006120400060494020E9354000C135400008
S214404510794E400015504000C1334000DC25402015
S21440452068494020C4254020E82540202B6FDB68A2
S2144045305868A14B98470130A04B1B689842B2D1AF
S214404540B5F866300133A5F866309D4B1B685A1C9B
S214404550AA622A63A8649B4A1268D189A5F86010AB
S214404560D289A5F86220013B6B6504232B76E918B7
S214404570E88E954B9847E88600EB80035B00A5F8ED
S2144045804E30B5F84C30012B01D1400080B2A5F832
S2144045904C00B5F86830013BA5F86830286F0368D2
S2144045A02B678A4B98472B6F93B94FF6FF73AB86B2
S2144045B0D5F884303BB1002229462869984710F147
S2144045C00A0F3FF41AAEAB7F43F00203AB77FFE52A
S2144045D00023AB8685F84630EAE77D4B1B7813F020
S2144045E0100F49D0754B1868AB6CDB43C34233D4CD
S2144045F02B6DC31A002B2FDC04232B766B6943B13B
S214404600002229462869984738B110F10A0F3FF42E
S214404610F4AD28466F4B9847EFE5B5F84C40284632
S2144046206D4B9847B5F8643013B1013BA5F864303C
S214404630012CEB8E04BF5B009BB2A5F84C30674B59
S2144046401B7813F0200F3FF4C3ADAB7F43F002035B
S214404650AB7707232B76BBE55A4B1B68604A14881A
S214404660574A11681A8801925B8800935D4B5E4AF0
S21440467021445E4CA047ABE513F0020F3FF4A8ADD3
S214404680AB6A013B4E4A126893427FF4A1AD28467E
S214404690574B98479CE528464F4B98474F4B1B78BF
S2144046A013F0200F3FF494ADAB7F43F00203AB779B
S2144046B007232B768CE52846474B9847474B1B7875
S2144046C013F0200F41D0424B1B7813F0100F35D01B
S2144046D02A6D3A4B1B689A4230D1AB7F43F00203B7
S2144046E0AB772846434B9847434B1B68AB420ED1AB
S2144046F0EA68414B1A600122404B1A700A232B7617
S2144047003F4B1A68EA601D603E4B984760E53E4A5C
S2144047101360002201202BB9002AECD000223A4B2D
S2144047201A60E8E7D968A94205D10AB1364A13604B
S214404730CA68DA60DFE702460B46ECE7AB7F43F039
S2144047400203AB7708232B7642E5214B1B7813F008
S214404750100F3FF43DAD2A6D184B1B689A427FF40C
S21440476037AD06232B7633E528461B4B98471B4B25
S2144047701B7813F0200F3FF42BADAB7F43F00203C2
S214404780AB7728461B4B98471B4B1B68AB420ED15A
S214404790EA68194B1A600122184B1A700A232B76C6
S2144047A0174B1A68EA601D60164B984710E5164A84
S2144047B01360002201202EE0C1114000C025402099
S2144047C0E0254020E4254020C1354000CD2B400068
S2144047D0C4254020653440004D374000DC2540204D
S2144047E0E82540203039402038394020ED524000FE
S2144047F0C5534000652C4000644940206049402035
S214404800784940206120400070494020D968A9423C
S21440481009D002460B46002BF8D1002ABBD0002216
S214404820724B1A60B7E70AB1704A1360CA68DA601A
S214404830B1E728466E4B98476E4B1B7813F0100F27
S2144048403FF4C6AC2A6D6C4B1B689A427FF4C0ACF2
S21440485028466A4B98476A4B1B68AB420ED1EA68BB
S214404860674B1A600122674B1A700A232B76664BF9
S2144048701A68EA601D60654B9847A9E45B4A136076
S2144048800022012004E0D968A94209D002460B461E
S214404890002BF8D1002AE5D00022544B1A60E1E7FD
S2144048A00AB1524A1360CA68DA60DBE72846504BC2
S2144048B09847504B1B7813F0100F3FF489AC2A6D85
S2144048C04D4B1B689A427FF483AC514A137843F0B1
S2144048D0100313707CE413F0100F13D0AB7F13F06B
S2144048E0100F06D1D5F88C301BB16FF00B0128693C
S2144048F0984729464248474B984729460120464B09
S21440490098477AE4B5F8642042B1EB6F33B1294654
S2144049102869984710F10A0F3FF46FAC3F4B1A686E
S214404920CAB1AB7F13F0100F06D010463C4B9847E9
S21440493028463C4B984760E4D5F88040ECB10023CD
S21440494029462869A04710F10A0F3FF456AC10B12B
S214404950324B1B68AB672E4B1B7813F0200F05D0ED
S214404960AB6F83B15A7B42F020025A7300222E4B23
S2144049701A6028462D4B98473FE4002329461846A0
S2144049802B4CA047DFE7AB8D40F66832934201D010
S2144049900133AB85D5F88040002CE7D000231A467B
S2144049A029462869A04710F10A0FDFD125E4214B9C
S2144049B01B689889204B984710F0040F04D0204677
S2144049C0174B9847FFF748BB1A4B1B681B4A108883
S2144049D01B4A11681A8801925B880093194B1A4A41
S2144049E0014405480068194DA847E8E7704940204B
S2144049F04D374000C4254020C0254020652C40004F
S214404A006449402060494020784940206120400069
S214404A10DC2540203130400075244000D825402019
S214404A202D264000653440007C494020155040000B
S214404A3079324000E42540209F114000E825402080
S214404A40E02540203039402038394020ED524000A3
S214404A502DE9F0478146884616469A469DF82070CE
S214404A6007F0010307F00202002A14BF0C250025B8
S214404A7005EB83050320234B98470446002838D08F
S214404A80877200230360C0F80480B8F808305B1BC8
S214404A900381142140461C4B984770BB6368D3F88B
S214404AA00480C4F80C80B9F81A00184FB847A8F824
S214404AB00000D4F80C80B9F81C00B847A8F80200EB
S214404AC0D4F80C805046124B9847C8F80400D4F8E7
S214404AD00C80C5F38705053546EA0535A8B2B847C4
S214404AE0A8F80C00E36800229A74DA742046BDE801
S214404AF0F0874046074B9847F8E72046064B9847CE
S214404B000024F3E755244000BF254000951140009F
S214404B10A91140002D264000CD2B40002DE9F8433A
S214404B2006460C46994614321144002289B20120AA
S214404B30144B9847804610B34568708B124FB84761
S214404B402880B08BB8476880C5F80490B06A0F4B91
S214404B509847A860A0080530000300F4704040F075
S214404B601000B847A881F08DB847E88100232B7421
S214404B706B74AB74EB74F28DB36A13443363404684
S214404B80BDE8F8838526400095114000A9114000F5
S214404B9059B32DE9F04F8BB00D46047EA11EC9B225
S214404BA0022902D9072C40F04F813AB1B0F866107E
S214404BB091421BD3B0F8681007291ED80595099373
S214404BC092460446B0F862305B08C28E934228BFD5
S214404BD013460793B0F868300493C76EAFB903978F
S214404BE000252E46A946A84638E0FEE7837F63F0B8
S214404BF07F0383774FF0FF307AE0837F63F07F0355
S214404C0083774FF0FF3073E01F463B68002BFBD1A5
S214404C100293BB7A03F0010003F00203002B14BF9B
S214404C200C2200223B890799C91AA1EB8001891AF8
S214404C3089B2B4F86A60C6B15246B24528BF324619
S214404C40B51AADB2891A89B216460397002918BF1D
S214404C50564500D26BB9B1464FF00008CA4540F2FF
S214404C60C5800023029306934EE03546029A03928F
S214404C70ECE7AAEB06038B42A8BF0B461FFA83F964
S214404C8000220320744B98478046002800F0DF80BF
S214404C904589A5EB0905ADB2A0F80890A0F80A90A2
S214404CA04A46059B991940686C4B9847B1441FFA91
S214404CB089F940466A4B9847049B03449BB2049349
S214404CC00397CBE72846674B9847A37F63F07F035D
S214404CD0A377B8F1000F02D04046624B9847029B3C
S214404CE0002B00F0AE8018465F4B98474FF0FF30E1
S214404CF00BB0BDE8F08F039B0293D9441FFA89F9A5
S214404D00039B0693CA4535D9AAEB090B1FFA8BFBC2
S214404D1007998B4528BF8B46002210464E4B984736
S214404D2005460028D1D043890893A0F808B0A0F8DB
S214404D300AB05A46059B03EB09014068474B984723
S214404D402846474B9847049B03449BB20493082B42
S214404D50B8D8E36D002200924B4429462046434D86
S214404D60A84703900028B0D0029B002BC3D0069AD9
S214404D701060C2E7089BA3EB0B05ADB23EB1D7F877
S214404D800490B9F1000F50D13B891E443E81A4F8EF
S214404D906A50B8F1000F08D041467868344B9847BF
S214404DA03B89B8F8082013443B81002F40D1029B32
S214404DB0E366E36D5344E365B4F86630A3EB0A0359
S214404DC0A4F86630BDF81030A4F86830039B93B35F
S214404DD0DC6894B3099B13F0020F30D1A5890820F4
S214404DE0244B98472843A081002081E70023029364
S214404DF0C4E79946B9F808303344A9F80830D9F8DA
S214404E000030002BF5D1B9F80A30D9F80400324604
S214404E1005991844D847B9F80A303344A9F80A30F7
S214404E20D9F80030002BAFD0E3E7DFF830B0E1E749
S214404E30029B3B60BDE700205AE7002058E7002071
S214404E4056E74FF0FF3053E76FF00C0050E7A37F74
S214404E5063F07F03A37742E785264000F17B40005E
S214404E602D2840002D264000F12B4000514A40009E
S214404E704D28400095114000B0F86830072B22D8E6
S214404E80F0B583B001F00203C1F34006002B14BF17
S214404E9004270027B0F86630002B4ED00D46044657
S214404EA0002239461046264B9847014690B1009658
S214404EB0E36D2A462046234EB047014688B1E26E4F
S214404EC0BAB9E06619E0837F63F07F0383774FF0DB
S214404ED0FF307047A37F63F07F03A3774FF0FF3028
S214404EE029E0A37F63F07F03A3774FF0FF3022E0F3
S214404EF01A461368002BFBD111600023A4F86A30D1
S214404F0015F0030F07D0E36D0133E365B4F8663060
S214404F10013BA4F8663015F0010F03D0A37F43F0A1
S214404F202003A3774868084B9847B4F8683018447D
S214404F30A4F86800002003B0F0BD4FF0FF30FAE759
S214404F4085264000514A40002D28400070B5054651
S214404F50C46E0CB90AE01C462368002BFBD1E368FC
S214404F6098890B4B984710F0070F04D0012128462C
S214404F70084B984770BDE668B4890120064B9847B1
S214404F802043B081AB7F43F02003AB77002070BD59
S214404F909F114000794E4000951140002DE9F041A8
S214404FA082B00446006D164B9847034600221146D1
S214404FB02046144DA84700B305464768A37F23F014
S214404FC00303A377261D0389009306233246214612
S214404FD0DFF83C80C0473882A37A06220192627A84
S214404FE00092324621462846074CA0472846074BA3
S214404FF09847002002B0BDE8F0816FF00100F9E765
S214405000A91140001D4B4000651840002D26400069
S2144050106D144000A24B1B68834200F065812DE969
S214405020F04F85B00546B0F86020B0F84C309A4254
S21440503028BF1A469246C46E837F13F0020F14D0E0
S2144050407CB1E3685868974B98472389AA6C9B1AAB
S2144050501844824505D3D5F87080B8F1000F0FD1BB
S21440506015E02846904B98473BE1D0F87080B8F161
S214405070000F05D15CB90023A5F86A302CE19846AC
S214405080D8F80030002BFAD1002C00F02181854E54
S214405090DFF834B2A2E0B5F866203AB1B5F8682039
S2144050A0072A03D813F0A00F00F012812368EB669E
S2144050B02B7E022B0CD0D4F80C90B9F80C70102034
S2144050C0D8473843A9F80C00AB7F23F00303AB77EF
S2144050D0E768A86A754B9847B860E768E88DD84790
S2144050E0F881EA8DAB6A13442B63A37A13F0010F61
S2144050F040F09480B5F93430B3F1FF3F00F09A8029
S2144051000DB12B6833B9281D694B984700282ED01F
S21440511043682B60AB6B002B00F08F806268E368BF
S21440512051685B1A9BB25189C91A518161680A89D4
S214405130D31A0B816368E2685A60E36800221A74E7
S2144051405A74E76860682A1D038900930623039211
S2144051502946DFF87891C8473882AB7A60680622DD
S21440516001926A7A0092039A2946524FB847E368FA
S2144051705868B0470746B4F80890E36898894E4B9D
S214405180984710F0030018BF0120484407442B6D91
S214405190DB1B002BB8BF2F652789E3689889464BF1
S2144051A0984710F0030018BF0120F84273D0002340
S2144051B023602B6F002B48D0E3685868B0470746FB
S2144051C0D8F80C305868B047381A002840DBC8F882
S2144051D00040A046EC6E002C3FF44DAFE3685868A4
S2144051E0B047AB6CC01A23891844824570D32B6FE6
S2144051F0002B3FF45BAFAB7F13F0440F7FF456AF0A
S214405200EA6E002A3FF447AF116800297FF44EAF9C
S2144052101189EA8E9142BFF449AF3CE7E768291D01
S21440522040F2B450254B984740F001701F4B9847CA
S21440523078615FE70023AB8662E7214B1B68AB6370
S214405240E3685868B047E86368E72C67A046C1E75C
S21440525005F170092B6FC3B122464C469146DB6878
S2144052605868B0470746D9F80C305868B047381ADF
S214405270002807DA24682368002BF0D14B46A14665
S2144052801C4602E04B46A1461C46D9F80030236037
S214405290C9F800409EE720460A4B98479AE700BF69
S2144052A07C494020C11140009D4F4000A91140005C
S2144052B069154000651840009F114000C135400008
S2144052C068494020CD2B4000951140006D144000A9
S2144052D0EB6E002B3FF4CFAEAB7F03F07F03AB7794
S2144052E0002005B0BDE8F08F002070472DE9F04F54
S2144052F083B081468A469346984600221421012070
S2144053001D4B9847002833D005464468BDF830000A
S2144053101A4EB0472080BDF83400B04760804846FB
S214405320174FB84760605046B847A06045F2140033
S214405330B047A08100260B23A3736823E37326742B
S2144053406674A674E6742B89009306234246594633
S21440535028460C4FB8472082062301930096FF2329
S214405360424659462846084CA0472846074B984789
S21440537003B0BDE8F08F00BF852640009511400081
S214405380A91140006D144000651840002D264000CD
S214405390026F0AB108B501E070471A461368002B41
S2144053A0FBD1C36E1360036FC3660022026790F89A
S2144053B04630013380F846308263014B984708BD3B
S2144053C0155040002DE9F041076F17B380463B6803
S2144053D0036700F16C05C36E73B1104EDB68586806
S2144053E0B0470446FB685868B047201A002803DADE
S2144053F02D682B68002BF1D12B683B602F603B68F3
S2144054004BB198F84630013388F846300023C8F848
S2144054103830BDE8F081A8F86A30F2E7C1114000A4
S214405420036F1BB1837F13F0040F00D0704710B595
S2144054300446124B9847B4F84C30B4F86020934278
S21440544017D95208A4F84E20E38EB4F84E20B2EB9B
S214405450430F02DA5A00A4F84E2003EB4303B4F895
S2144054604E201344A4F84C30A37F43F00403A377A4
S21440547010BD5B08A4F84E30E6E700BFC5534000B9
S2144054802DE9F04182B00446006D0138124B984732
S2144054900346002211462046104DA847C0B1054697
S2144054A04768261D03890093062332462146DFF8C7
S2144054B03880C0473882A37A0622019200220092A2
S2144054C0324621462846064CA0472846054B984774
S2144054D002B0BDE8F08100BFA91140001D4B40005E
S2144054E0651840002D2640006D1440002DE9F0411F
S2144054F082B0056FFDB10446EB689889264B984705
S21440550010F0010F01D02B89C3B1EB685B68012214
S21440551000212046214EB0470646002839D07768FD
S214405520686803892A899B1A9BB2012207F11401F5
S2144055301B4DA84715E0C56E5DB3DCE7EB685B68BE
S214405540002211462046154DA847064608B3776800
S214405550B7F90C5025F47C551120124B9847284338
S214405560B881251D3389009306232A4621463046B6
S214405570DFF83C80C0473882A37A06220192002298
S21440558000922A4621463046074CA0473046074BF5
S214405590984702B0BDE8F0819F1140001D4B400087
S2144055A03129400095114000651840002D264000E6
S2144055B06D144000704700002DE9F04F85B004465A
S2144055C08946D0F8048098F8001001F00F0103894E
S2144055D08A1CB3EB820F04DB89004942594B98473B
S2144055E028B12046584B984705B0BDE8F08FD4F810
S2144055F004A04946554B1868554B98470746BAF895
S2144056000000544EB0470546BAF80200B047524B29
S214405610D3F800E0BEF1000F42D04C4BD3F800C0A8
S2144056204E4BD3F800B073460026324603947CE0D7
S214405630197C01F00401002908BF1E466DE013F1F5
S214405640040F03D0596809B1594569D1039C2AB162
S214405650D968D160C3F80CE03F4A136013B11E46C8
S21440566001E0039CE6B1BAF806304BB123890093BB
S2144056701123364A39492046DFF8E890C847D8B95A
S2144056806FF0070120462F4B9847C8B906B3B76955
S214405690D7B1F0690095314B22463146B847A3E76B
S2144056A0D9F80420294B1B689A4203D02046264B43
S2144056B0984799E70026D6E72046234B984793E736
S2144056C02046214B98478FE720461F4B98478BE74D
S2144056D097B91E4B1B6803F0F003E02B0CD098F8EC
S2144056E0001001F00F01023189002046154B984703
S2144056F0032120461A4B98472046134B984773E79A
S21440570019688C4507D031B12BB18CEA0104D9F821
S21440571008100C4204D1002E8AD0998AA9428ED015
S214405720D9681A4600299CD00B46598A8142F7D13F
S214405730002FE5D1002BEED019680029EBD061454B
S214405740EED1E8E7BF2540002D26400038394020FE
S214405750A51840009F114000804940203039402025
S214405760D11340006D14400010B5044600EB800293
S214405770094B53F8220038B1084B984704EB840392
S2144057809B000021044AD15004EB8404024B03EBF7
S21440579084040023A37410BDEC2540202D26400031
S2144057A02DE9F04F83B03A4A002398460A269E4693
S2144057B09B463446B446B146019114E07FB120B1D1
S2144057C001688A4669688A4515D0012F15D0012F91
S2144057D005D9ED7C754502D34FFA83FCAE460133BE
S2144057E014320A2B18D01546977C0A2CE6D1002F87
S2144057F0E4D15CB2F3E758B228E02F682FB1ED7CD5
S2144058004545ECD35EB2A846E9E7ED7C5D45E6D378
S2144058104FFA83F9AB46E2E7019911F0020F2ED119
S21440582005460A2C15D0092C16DCE4B235B1296899
S21440583004EB8403164A02EB8303596004EB8402AC
S214405840134B03EB82030022DA7460B203B0BDE868
S214405850F08F11F0010F15D0BCF1090F05DC5FFA8F
S2144058608CF420460B4B9847E0E7B9F1090F02DC71
S2144058705FFA89F4F5E7092E07DCF4B2F1E74FF05A
S214405880FF30E3E74FF0FF30E0E74FF0FF30DDE773
S214405890EC2540206957400038B54C681D682560A7
S2144058A09B88A3801368C4F80630938863810823D6
S2144058B02373002363738369984738BDF8B50F4C4C
S2144058C000250F4E022706E0032A08BF8F740135D5
