:020000040040BA
:10000000C02A4020510840004D0840004D084000E3
:100010004D0840004D0840004D0840000000000021
:100020000000000000000000000000004D0840003B
:100030004D084000000000004D084000BD10400089
:100040004D0840004D0840004D0840004D0840005C
:100050004D0840004D0840004D0840004D0840004C
:100060004D08400000000000250640003906400011
:100070004D0640004D0840004D0840004D0840002E
:1000800061064000750640004D0840004D084000E4
:100090004D0840004D0840004D0840004D0840000C
:1000A0004D0840004D0840004D0840004D084000FC
:1000B0004D0840004D0840004D0840004D084000EC
:1000C0004D0840004D0840004D0840004D084000DC
:1000D0004D0840004D0840004D0840004D084000CC
:1000E0004D0840004D0840004D0840004D084000BC
:1000F0004D0840004D0840004D0840004D084000AC
:100100004D0840004D0840004D0840004D0840009B
:100110004D0840000000000000000000000000004A
:100120004D0840004D0840004D0840004D0840007B
:100130004D0840004D0840004D0840004D0840006B
:100140004D0840004D0840004D0840004D0840005B
:100150004D0840004D0840004D0840004D0840004B
:100160004D0840004D08400010B5054C237833B9C8
:10017000044B13B10448AFF300800123237010BD7A
:10018000B809402000000000D47A40000C4B43B175
:100190000C480D4910B5AFF300800C48036823B933
:1001A00010BD0A48036833B97047094B002BF7D0DC
:1001B000BDE810401847064B002BF5D0184700BF8C
:1001C00000000000D47A4000BC094020D47A4000EE
:1001D000000000002DE9F04180B90C469046002A4D
:1001E0000FDD8F18084E094D306821462B6898475F
:1001F0000134BC42F8D14046BDE8F0814FF0FF38F1
:10020000F9E78046F7E700BF900A4020880A4020BF
:1002100010B40B01934214D9C9004B0803EBC2027E
:10022000B2FBF1F2D3085C1E4FF6FE718C4201D98D
:10023000012017E0416841F4002141600CE00120F9
:1002400010E0590801EBC202B2FBF3F2D3085C1EC6
:100250004FF6FE718C42F2D8120402F4E0221A43E7
:10026000026200205DF8044B70470000084BC0F8A4
:10027000E4300023436043628362882303602423C5
:1002800003604FF4807303604FF4002303607047F2
:100290000041535570B505460C4616460F4B98471E
:1002A00000220F4B1A60A4B13246216828460D4B3C
:1002B0009847024678B96368A1680B4321690B43EC
:1002C000E1680B4306490B6069680B436B6010469D
:1002D00070BD0122FBE70122F9E700BF6D0240007B
:1002E000D4094020110240004023036070471023CE
:1002F00003607047436913F0020F04D0C1F3080193
:10030000C1610020704701207047436913F0010F5D
:1003100005D08369C3F308030B60002070470120F8
:10032000704700000138022815D82DE9F0410E462B
:1003300014469AB10D46DFF838800C4FD8F800000B
:1003400015F8011B3B68984700280ADBA81B013CF5
:10035000F4D1BDE8F0814FF0FF3070471046BDE8A2
:10036000F0814FF0FF30BDE8F08100BF8C0A4020E3
:10037000900A4020436913F0020F02D0C1610020AF
:10038000704701207047436913F0010F03D0836960
:100390000B700020704701207047000010B5104816
:1003A000104B98473E2100200F4B98470F4CA04719
:1003B0000028FCD00E4B98470E4A0F4B9A620F4C08
:1003C000A0470028FCD002200D4B984710200D4B71
:1003D00098470D4B98470D48024B984710BD00BFFA
:1003E000000E2707250A4000A9074000FD0740002E
:1003F0000D084000013F182000060E401D08400077
:100400000D074000450740001909400080D1F00861
:1004100010B54FF400423B4B5A60A3F545633A4A8E
:100420005A60A2F580725A60BFF34F8FBFF36F8F8F
:10043000364BD3F8902222F00102C3F89022D3F871
:10044000942222F00102C3F89422BFF34F8FBFF32E
:100450006F8F0A202E4CA0470B20A0470C20A047EE
:100460001020A0471120A0472A4B4FF480721A6138
:10047000C3F8A0201A63A3F580634FF400625A61A9
:10048000C3F8A0205A66C3F890205A651A62C3F8D0
:100490008420196F21F400611967596F21F40061FC
:1004A0005967C3F8C020C3F8D420C3F8B0204FF474
:1004B00000121A66C3F890205A655A62C3F8802069
:1004C000196F21F400111967596F21F40011596750
:1004D0005A60114AD2F8143143F01003C2F81431B3
:1004E0000E4B10221A66C3F890205A655A62C3F860
:1004F0008020196F11431967596F114359675A606A
:1005000010BD00BF50180E400C08005A00ED00E06E
:100510002D08400000120E400080084000100E40E0
:1005200012F0100F12D0C0F8B01012F0200F07D048
:10053000C0F8D41012F0400F05D0C0F8C0107047BA
:10054000C0F8D010F6E7C0F8C4107047C0F8B41077
:1005500070470164704741647047C06C7047806C9D
:10056000704700002DE9F041044688460E4B98473D
:10057000054620460D4B9847054013D00C4C04F11E
:10058000600603E0B4420DD010345DB120684045F0
:10059000F8D161682942F5D0E3689847636825EA95
:1005A0000305EFE7BDE8F0815B0540005F05400013
:1005B000D8094020F8B5184C2668062E2AD84FF0E6
:1005C000000C6446154F04E00134E4B2A446A64290
:1005D00009D3A64625017D598D42F5D107EB0415B7
:1005E0006D689542F0D10D4D4FEA0E1E05EB0E04DD
:1005F00045F80E106260A3600699E1600136664519
:1006000005D011461A46064B98470020F8BD02490E
:100610000E60F6E70120F8BD480A4020D8094020C6
:100620002105400008B50A210148024B984708BD42
:10063000000E0E406505400008B50B210148024B35
:10064000984708BD00100E406505400008B50C2114
:100650000148024B984708BD00120E406505400056
:1006600008B510210148024B984708BD00140E4000
:100670006505400008B511210148024B984708BDA7
:1006800000160E4065054000F8B506460D461446B6
:10069000174B984707464FF0FF313046154B9847A8
:1006A0003046154B98475FFA85FE0EF01F03012276
:1006B00002FA03F36809114901EB8002C2F88030A5
:1006C000C2F88031002D0ADB6401E4B20C4A5455B3
:1006D00041F82030394630460A4B9847F8BD0EF0B5
:1006E0000F0E6401E4B2084A02F80E40F0E700BFC2
:1006F0005F054000570540005B05400000E100E059
:1007000000E400E05305400014ED00E0032811D0A0
:10071000042812D002280CBF4FF480710021084A2F
:10072000136B23F440730B431363936E13F0080FA2
:10073000FBD070474FF44071F1E74FF40071EEE7E2
:1007400000060E40174A136B23F070031843106322
:10075000936E13F0080F0AD14FF4805311498A6E3B
:1007600012F0080F03D1013BF9D1012070470D4A67
:10077000136B23F0030343F002031363936E13F030
:10078000080F0AD14FF4805306498A6E12F0080F01
:1007900005D1013BF9D101207047002070470020AE
:1007A000704700BF00060E40A0B90E48036A090258
:1007B00089B20D4A1A400D4B134319430162024698
:1007C000936E13F0010FFBD0064A116A084B0B43DE
:1007D0001362704703490B6A064A1A40064B1343DB
:1007E0000B62704700060E40FCFFC8FF0100370097
:1007F00000003701FCFFC8FE02003701024B986E73
:1008000000F48030704700BF00060E404FF00052E9
:10081000014B9A62704700BF00060E40024B986E73
:1008200000F00200704700BF00060E4000F07F009D
:10083000054BC3F80C01D3F80C2142F01022C3F889
:100840000C210020704700BF00060E40FEE70000AC
:1008500000B583B0254B264A9A4210D0254B234A37
:100860009A420CD2013B9B1A23F003030433134436
:100870001F4951F8040B42F8040B9A42F9D11E4B60
:100880001E4A9A420AD2013B9B1A23F00303043307
:100890001344002142F8041B9342FBD1184A194B20
:1008A00023F07F039360EFF31083B3FA83F35B09C4
:1008B000019372B6BFF35F8F0022134B1A70019938
:1008C000124A136843F470031360BFF34F8FBFF3F2
:1008D0006F8F29B101220C4B1A70BFF35F8F62B684
:1008E0000B4B98470B4B9847FEE700BF000040209A
:1008F000D47A4000B8094020BC0A4020B809402002
:1009000000ED00E0000040000000402088ED00E025
:10091000FD124000CD1040003B4B1B6B03F0030366
:10092000012B1DD083B1022B36D0374B1B6B03F04C
:100930007003702B5FD0344B1A6B3449C2F3021230
:100940000B68D3400B607047314B5B6913F0800F2D
:1009500014BF4FF400424FF4FA422C4B1A60E4E704
:10096000294B1B6A13F0807F03D02A4A274B1A6059
:10097000DBE7294A254B1A60234B1B6A03F07003FF
:10098000102B05D0202BD0D1224A204B1A60CCE767
:10099000224A1E4B1A60C8E71B4B1B6A13F0807F6C
:1009A00016D01C4A194B1A60174B1B6B03F003033C
:1009B000022BBAD1144A916A926A1448C1F30A41CF
:1009C000036801FB0333D2B2B3FBF2F30360ACE77D
:1009D000114A0E4B1A600C4B1B6A03F07003102B6C
:1009E00005D0202BE0D10B4A084B1A60DCE70B4AFC
:1009F000064B1A60D8E7054A13680949A1FB03139F
:100A00005B081360704700BF00060E4004004020E2
:100A100010180E40001BB70000093D0000127A00BC
:100A2000ABAAAAAA164B984213D9164B984215D9CD
:100A3000154B984216D9154B984217D9144B98422A
:100A400018D9144B984294BF134A144A144B1A6095
:100A500070474FF08062124B1A607047114A104B7A
:100A60001A607047104A0E4B1A6070470F4A0C4BC1
:100A70001A6070474FF00422094B1A60704700BF9C
:100A8000BFF35E017FE7BD023FDB1C04FFCE7B05A9
:100A9000BFC2DA067FB6390800050004000600046C
:100AA000000C0E40000100040002000400030004DA
:100AB0000A4B1B6853B1094B1B681A18084991422D
:100AC00008DB1046054A106018467047054A034B7C
:100AD0001A60F0E74FF0FF30704700BF4C0A40202B
:100AE000FCFF4520C02C40204FF0FF3070474FF4F2
:100AF00000534B6000207047012070470020704772
:100B000000F01F0301229A401A4B03EB50104002E1
:100B100011F0080F22D0426611F0100F20D0C0F85B
:100B2000942011F0200F1ED0026511F0C00F1CD0D0
:100B3000026211F0800F1AD0C0F8842011F0010F6A
:100B4000036F14BF13439343036711F0020F436F06
:100B500014BF1A4323EA0202426770470266DBE7CA
:100B6000C0F89020DDE74265DFE74262E1E7C0F8C8
:100B70008020E3E70707200082B00190019B2BB1A2
:100B8000019B013B0193019B002BF9D102B07047FF
:100B9000F0B583B005460C46002301932A4B9842DA
:100BA00013D02A4B984218D0294B98421DD0294B7C
:100BB0009D4222D0284B9D4227D0284B9D422ED0CB
:100BC000274B9D4235D003B0F0BD1F46254E214630
:100BD0003846B0470028FAD1E9E71F46214E2146A2
:100BE0003846B0470028FAD1E4E71F461D4E21469B
:100BF0003846B0470028FAD1DFE71F46194E214694
:100C00003846B0470028FAD1DAE71E46164D01A94A
:100C10003046A8470028FAD1019B2370D3E71E462F
:100C2000114D01A93046A8470028FAD1019B237035
:100C3000C9E71E460C4D01A93046A8470028FAD145
:100C4000019B2370BFE700BF00080E40000A0E4062
:100C5000001A0E40001C0E4000400240008002407E
:100C600000C00240870340000B03400070B50C46F3
:100C70002A4B984213D02A4B984219D0294B9842BC
:100C80001FD0294B984225D0284B98422BD0284B77
:100C9000984231D0274B984237D0002070BD1E4675
:100CA000254D21463046A8470028FAD1012070BDC5
:100CB0001E46214D21463046A8470028FAD1012082
:100CC00070BD1E461C4D21463046A8470028FAD16B
:100CD000012070BD1E46184D21463046A847002809
:100CE000FAD1012070BD1E46144D21463046A8475A
:100CF0000028FAD1012070BD1E46104D2146304615
:100D0000A8470028FAD1012070BD1E460B4D214690
:100D10003046A8470028FAD1012070BD00080E40D7
:100D2000000A0E40001A0E40001C0E400040024017
:100D30000080024000C0024075034000F502400000
:100D40002DE9F04184B0884600238DF80F308DF8EE
:100D50000E300138032800F22081DFE810F0040093
:100D6000EB00FC000D010822944B5A6303F58063ED
:100D70004FF400121A634FF480021A634FF080722E
:100D8000A3F5C0631A6342F210708D4B98478D4EE5
:100D9000F36BC3F380738DF80E309DF80F209DF830
:100DA0000E3013438DF80F309DF80E20864D2946E6
:100DB0006846864CA0479DF800308DF80B30F36BE9
:100DC000C3F300738DF80E309DF80E209DF80F30A0
:100DD00043EA4203DBB28DF80F309DF80E2029461E
:100DE0006846A0479DF800308DF80A30F36BC3F3D6
:100DF000C0638DF80E309DF80E209DF80F3043EA49
:100E00008203DBB28DF80F309DF80E20294668462C
:100E1000A0479DF800308DF809306D4FFB6BC3F390
:100E2000C0638DF80E309DF80E209DF80F3043EA18
:100E3000C203DBB28DF80F309DF80E2029466846BC
:100E4000A0479DF800308DF80830F36BC3F30033F2
:100E50008DF80E309DF80E209DF80F3043EA0213F6
:100E6000DBB28DF80F309DF80E2029466846A0476A
:100E70009DF800308DF80730F36BC3F3C0238DF875
:100E80000E309DF80E209DF80F3043EA4213DBB27E
:100E90008DF80F309DF80E2029466846A0479DF832
:100EA00000308DF80630FB6BC3F340138DF80E3025
:100EB0009DF80E209DF80F3043EA8213DBB28DF8C7
:100EC0000F309DF80E2029466846A0479DF8003057
:100ED0008DF80530FB6BC3F340238DF80E309DF881
:100EE0000E209DF80F3043EAC213DBB28DF80F30AD
:100EF0009DF80E2029466846A0479DF800308DF8E1
:100F0000043000238DF80C3008222C4B1A634FF468
:100F1000001333634FF4800333634FF080733B63FC
:100F2000092201A940462B4B98479DF80F0004B0B9
:100F3000BDE8F0810822214B1A6303F580634FF46A
:100F400000125A634FF480021A634FF08072A3F5C7
:100F5000C0631A6317E70822184B1A6303F580630E
:100F60004FF400121A634FF480025A634FF08072FC
:100F7000A3F5C0631A6306E70822104B1A6303F552
:100F800080634FF400121A634FF480021A634FF02B
:100F90008072A3F5C0635A63F5E60822074B1A6313
:100FA00003F580634FF400121A634FF480021A6352
:100FB0004FF08072A3F5C0631A63E4E600100E40A0
:100FC000790B400000140E40F8774000B115400046
:100FD000000E0E40FD1540000C2857D1B1F5002F32
:100FE00054D12DE9F04385B00023019302938DF88D
:100FF0000C30274C4FF08075256342F21070254E5F
:10100000B047656342F21070B04701A90120224F3A
:10101000B8478046024601A92048214DA84742F220
:101020001070B04701A90220B8478146024601A9C5
:101030001C48A84742F21070B04701A90320B847E6
:101040000246040404EB0924444401A91648A847B5
:1010500042F21070B04701A90420B847024604EBE1
:10106000006401A91148A847114F4FF40058C7F870
:10107000348042F21070B047C7F8308021460D48E6
:10108000A8470D48A84705B0BDE8F083704700BFEA
:1010900000140E40790B4000410D40008477400061
:1010A0004D13400094774000A4774000B47740008F
:1010B000000E0E40C4774000E0774000024A1368FB
:1010C00001331360704700BF500A40202DE9F047FC
:1010D00088B06B4B98476B4B98470A206A4CA047E7
:1010E0000B20A0470C20A0471020A0471120A047AC
:1010F0000E20A047654D664B1D60664A664B1A6020
:10110000664A674B1A604FF4E1330293C02303939E
:101110004FF4006ACDF810A00027059706970E201F
:10112000A047604A02A928465F4B984728465F4B74
:10113000984728465E4B98475E4D2B68394698681D
:101140005D4CA0472B6839465868A0472B68394644
:101150009868A0475948DFF8A091C847584C4FF00D
:1011600080436361C4F8A03010217E20554EB04703
:101170004FF080536361C4F8A03010217C20B04749
:101180004FF00068C4F81480C4F8A08010217B20C0
:10119000B0474D4DC5F81480C5F8A08010211B2024
:1011A000B0474FF48058C4F81480C4F8A0801021D0
:1011B0006C20B047C4F814A0C4F8A0A010216B2084
:1011C000B04720236B61C5F8A03010210520B0473F
:1011D0004FF400736B61C5F8A03010210920B047AF
:1011E0003A4B08221A61C3F8A0204FF40013236180
:1011F000C4F8A0304FF480032361C4F8A0304FF04E
:1012000080732B61C5F8A0302361C4F8A0304FF47F
:1012100000542C61C5F8A04010210D20B0472C636C
:101220002B4C4FF400256561C4F8A0508821532051
:10123000B047C4F8C050C4F8D450C4F8B050254BDF
:10124000009379232A460C212046234EB047234B96
:10125000C3F800803A460C212046214B9847294686
:101260002046204B9847204B204A5A60E021204AD4
:1012700082F823109F6007221A601E48C847FEE7C5
:101280009D034000110440002D08400000800240F2
:10129000900A40206D0C40008C0A4020910B4000C9
:1012A000880A4020C068780495024000E9024000A6
:1012B000EF0240000800402011144000D0774000A9
:1012C00000140E40010B4000000E0E4000100E40B6
:1012D00000120E40D90F4000B505400000E100E0CB
:1012E000890640005305400010E000E0EF4902008D
:1012F00000ED00E0E47740004D13400070B50F4E64
:101300000F4D761BB61018BF002405D0013455F8D8
:10131000043B9847A642F9D10A4E0B4D761B06F0C6
:10132000C3FBB61018BF002406D0013455F8043BA7
:101330009847A642F9D170BD70BD00BFB47A400095
:10134000B47A4000BC7A4000B47A40000FB400B5D3
:10135000074983B004AB086853F8042B81680193F4
:1013600001F0ECFB03B05DF804EB04B0704700BF84
:101370000800402070B4860746D0541E002A41D091
:10138000CAB2034602E014F1FF343BD303F8012B49
:101390009D07F8D1032C2ED9CDB245EA05250F2C97
:1013A00045EA054519D903F110022646103E0F2ED5
:1013B00042F8105C42F80C5C42F8085C42F8045CAD
:1013C00002F11002F2D8A4F1100222F00F0204F090
:1013D0000F041032032C13440DD91E462246043A42
:1013E000032A46F8045BFAD8221F22F003020432D3
:1013F000134404F003042CB1C9B21C4403F8011BCC
:101400009C42FBD170BC704714460346C2E700BF44
:1014100000290CBF022200224FF4806300F000B8C4
:101420002DE9F043614C256883B004460F46904691
:101430001E4615B1AB6B002B64D0B8F1020F06D07D
:10144000B8F1010F00F29F80002EC0F29C80636E05
:10145000D80734D52146284603F0CCFA216B41B198
:1014600004F14003994202D0284603F041FC0023D6
:101470002363B4F90C300022A26162601A063AD4E8
:1014800023F44A6323F00303B8F1020FA3811DD0B4
:1014900001AB6A462146284603F0D6FEA3891843CD
:1014A000A081002E32D1009E304603F045FF074652
:1014B00000286BD0A38943F08003A38128E0A3898F
:1014C0009905C7D4A06D03F0BBFEC3E70025616E8C
:1014D000002604F1430243F002030120A660CE0778
:1014E000A38122602261606101D498053ED528461F
:1014F00003B0BDE8F0832169284603F0F9FBB4F995
:101500000C30BDE7284603F0CDFA96E7002FCBD08C
:10151000AB6B002B33D0009BB4F90C2027609E42AC
:101520001CBF42F40062A281B8F1010F04BF42F077
:101530000102A28192B212F00803276166610ED007
:10154000D1071AD5656E7642002315F00105A66114
:10155000A36009D00025284603B0BDE8F083A3604E
:10156000656E15F00105F5D19305C0D4A06D03F0AB
:1015700069FE284603B0BDE8F083A660F0E7284680
:1015800003F090FAC7E74FF0FF35B0E7DDF80090C1
:10159000B14504D0484603F0CFFE074620B9B4F960
:1015A0000C304FF0FF3592E74E4683E708004020AD
:1015B0000EB4F0B59CB021AB0F4953F8042B019346
:1015C00005466FF00044086802954FF402774FF625
:1015D000FF7602A90695ADF8147004940794ADF84F
:1015E000166000F03DF8029B00221A701CB0BDE8A6
:1015F000F04003B0704700BF0800402040EA0103FC
:1016000013F0030F70B4034624D0A2B10C781C7001
:10161000013A013301313CB16AB111F8014B03F8D1
:10162000014B013A002CF7D12AB11A44002103F8EA
:10163000011B9A42FBD170BC70470E4651F8045B07
:10164000A5F1013424EA050414F0803F05D143F8E4
:10165000045B043A032AF0D8D7E73146D6E700BF47
:101660002DE9F04FC3B00C460B9192460F930C90AE
:1016700003F0D4FD03681A93184604F081FFA38990
:101680001990190603D52369002B01F0038000236C
:101690000DF1C80913931593149327932693189368
:1016A0001B930993CDF89490C846169317939AF814
:1016B00000305446E3B1252B02D119E0252B03D08D
:1016C00014F8013F002BF9D1A4EB0A0585B1269B44
:1016D000279AC8F800A001332A44072BC8F8045001
:1016E000279226937FDC08F10808099B2B44099375
:1016F0002378002B7FD000231A468DF877301946C7
:101700000D939B464FF0FF3063780A9004F1010A75
:101710000AF1010AA3F12000582800F2C183DFE892
:1017200010F03802BF03BF034002BF03BF03BF0373
:10173000BF03BF03BF0345020302BF035D006B028B
:10174000BF0386029D039D039D039D039D039D038F
:101750009D039D039D03BF03BF03BF03BF03BF03DF
:10176000BF03BF03BF03BF03BF0337035703BF0359
:101770005703BF03BF03BF03BF039803BF03BF03E8
:10178000AD03BF03BF03BF03BF03BF035902BF03C2
:10179000BF031E03BF03BF03BF03BF03BF03BF03DA
:1017A000BF03BF03BF03BF03C602DB0257035703D8
:1017B00057038B02DB02BF03BF039002BF039D02EE
:1017C000CC01B4020802BF03E101BF037E00BF03E6
:1017D000BF030D020D980F9340420D904BF0040B88
:1017E0009AF8003094E725AA0B990C9804F036FF7C
:1017F00040B9C84679E7279B23B10C980B9925AAD5
:1018000004F02CFF0B9B9B8913F0400F099B18BF22
:101810004FF0FF330993099843B0BDE8F08F1BF0F8
:10182000200F119340F0DD810F9A1BF0100F13462B
:1018300040F06E851BF0400F00F06A85148804327A
:10184000002501230F9200278DF877700A994A1C12
:1018500000F065822BF08002079254EA050240F006
:101860006482002940F03C84002B40F0D7841BF0B8
:1018700001030E9300F0048642AE302306F8413D8A
:101880000A9B0E9A9342B8BF134608930023129303
:1018900017B1089B01330893079B13F002031093C1
:1018A00002D0089B02330893079B13F0840540F095
:1018B0000E830D9B089AA3EB020BBBF1000F40F3C4
:1018C0000683BBF1100F279C269A29DD434621464B
:1018D000A84610270C9C0B9D06E0ABF1100BBBF14A
:1018E000100F03F1080318DD0132B74826921031BA
:1018F000072A279183E88100EFDD25AA29462046A3
:1019000004F0ACFE00287FF47DAFABF1100BBBF10F
:10191000100F2799269A4B46E6DC45460C4698461A
:101920000132A94B26925C44072A279488E80808CC
:1019300000F398849DF8777008F1080877B1269B2A
:10194000013301340DF177010122072B27942693EF
:1019500088E8060000F3DB8308F10808109B6BB1F0
:10196000269B013302341EA90222072B27942693BB
:1019700088E8060000F3D68308F10808802D00F0FF
:1019800015830A9B0E9A9F1A002F36DD102F269B77
:101990008E4D27DD42462146B0464FF0100B2E46B5
:1019A0000C9C0B9D04E0103F102F02F1080215DD86
:1019B00001331031072B2791269382E84008F2DD8E
:1019C00025AA2946204604F049FE00287FF41AAFD4
:1019D000103F102F2799269B4A46E9DC35460C46D6
:1019E0004646904601333C44072B2794269388E8CB
:1019F000A00000F3818308F10808079BDF0500F1D0
:101A00006882269B0E99C8F8006001330C44072BAE
:101A10002794C8F80410269300F34D8308F10808B2
:101A2000079B5B073AD50D9B089A9D1A002D35DD63
:101A3000102D269B20DD10260C9FDDF82CB004E035
:101A4000103D102D08F1080816DD01335E4A26937B
:101A50001034072B279488E84400F1DD25AA594665
:101A6000384604F0FBFD00287FF4CCAE103D102D6D
:101A7000279C269BC846E8DC0133534A26932C4416
:101A8000072B279488E8240008DD25AA0B990C98D9
:101A900004F0E4FD00287FF4B5AE279C099B0D9A65
:101AA00008998A42ACBF9B185B180993002C40F040
:101AB0000D8300232693C846F9E511931BF02003FC
:101AC00040F0E3811BF0100240F02E841BF0400335
:101AD00000F02A840F9913460A4604320C880F92AC
:101AE0000025B0E60F9A1193166800248DF8774010
:101AF000151D002E00F0A7860A9A531C00F00986D7
:101B00002146304603F0ECFE002800F0E186831BFE
:101B10000E930A940F95CDF81CB023EAE373089353
:101B200012949DF87770B3E69AF8003001222B21C9
:101B3000EEE54BF0200B9AF80030E9E51193002A0E
:101B400040F09587224B18931BF0200F40F0118135
:101B50000F9A1BF0100F134640F0E1831BF0400F6B
:101B600000F0DD83043314880F9300251BF0010F70
:101B700000F00C8154EA050300F0088130239DF841
:101B800044208DF878308DF879204BF0020B022339
:101B900059E69AF8003000297FF4BAAD01222021DD
:101BA000B6E54BF0010B9AF80030B1E50F9C2368C5
:101BB0000D9318460028234603F10403FFF60AAEEE
:101BC0000F939AF80030A3E5447840005478400021
:101BD000247840004BF0100B1BF0200F11933FF4C2
:101BE00023AE0F9D073525F0070303F10802D3E963
:101BF00000450F92012326E69AF800302A2B0AF1BD
:101C0000010400F02787A3F130000928A24600F262
:101C1000AD8600231C461AF8013B04EB840400EB5C
:101C20004404A3F130000928F5D90A9472E54BF079
:101C3000800B9AF800306BE54BF0400B9AF80030BF
:101C400066E59AF800306C2B03BF9AF801304BF030
:101C5000200B0AF1010A4BF0100B59E5002A40F065
:101C600011871BF0200F40F0F9841BF0100F40F09B
:101C7000AC841BF0400F00F0A8840F9A1368043264
:101C80000F92BDF824201A8011E50F99B34B0C6810
:101C900018933022782304318DF8793011934BF06A
:101CA000020B0F9100258DF878200223CBE50F99C8
:101CB00011930A688DF8A02000230A461F468DF86C
:101CC0007730043201230893CDF81CB00A9712979D
:101CD0000F920E9328AEDFE51193002A40F0EA86BA
:101CE0001BF0200F5DD11BF0100F40F008831BF09C
:101CF000400F00F004830F99B1F900400431E5175B
:101D000022462B460F91002A73F1000358DB0A99F3
:101D10009DF877704A1C4FF001037FF49BAD54EAA5
:101D2000050200F0DF81CDF81CB0012B00F07B82B2
:101D3000022B40F0068218984E46230904F00F014A
:101D400043EA05732A091C461546435C06F8013D23
:101D500054EA0503F1D1A9EB06030E9390E5119324
:101D6000002A40F0A3867E4B18931BF0200F3FF40F
:101D7000EFAE0F9D073525F0070303F108021BF0B6
:101D8000010F0F92D3E900457FF4F4AE02235AE528
:101D90001193002A40F086864BF0100B1BF0200FA9
:101DA000A1D00F9D073525F00705D5E90023002AAE
:101DB00005F108011D4673F100030F911446A6DAE0
:101DC0002D27644265EB45058DF8777001233DE5CD
:101DD0001193002A40F062860F9D073525F0070316
:101DE00003F108020F921A6815925B681493149B12
:101DF000159D23F00044284621464FF0FF32594BF1
:101E000005F0FAFA002840F04A83284621464FF0B0
:101E1000FF32544B05F0D2FA002840F0408315A859
:101E20000DC8149905F0C0FA002840F030859DF8DF
:101E300077704D4E4D4B2BF0800007901198032288
:101E4000002108920A914728D8BF1E460E9212918F
:101E50001EE54BF0080B9AF8003059E4A3F130006E
:101E600000231C461AF8013B04EB840400EB4404F5
:101E7000A3F130000928F5D90D944BE44BF0100B79
:101E800011931BF020033FF41DAE0F9D073525F085
:101E9000070303F10802D3E900450F920023D2E4BF
:101EA0001193002A40F0E785119A002A3FF4A3AC71
:101EB000002301211F4608918DF8A020CDF81CB009
:101EC0008DF877300A9312930E9128AEE4E4279CA4
:101ED00034E5119B652B40F3A78015A80DC8149914
:101EE00005F058FA002800F05081269B204AC8F8D7
:101EF0000020013301340122072B27942693C8F8D0
:101F0000042000F36A8308F108081F9B139A279C9A
:101F1000934203DB079BDD077FF582AD269B199972
:101F20001A9AC8F8002001330C44072BC8F8041093
:101F30002794269300F39E8308F10808139B5E1EE6
:101F4000002E7FF76DAD102E269B0A4D40F3F581D4
:101F500022461027DDF830B00B9C13E024784000B7
:101F600010784000FFFFEF7F0478400000784000C9
:101F7000407840005478400008F10808103E102EC8
:101F800040F3DA8101331032072B2792269388E839
:101F9000A000F1DD25AA2146584604F05FFB002889
:101FA0007FF430AC279A269BC846E7E70D9B089A3A
:101FB0009F1A002F7FF7E5AC102F269BB64D27DD2B
:101FC00042462146B0464FF0100B2E460C9C0B9D0E
:101FD00004E0103F102F02F1080215DD013310312B
:101FE000072B2791269382E84008F2DD25AA29468F
:101FF000204604F033FB00287FF404AC103F102F80
:102000002799269B4A46E9DC35460C4646469046CB
:1020100001333C44072B2794269388E8A00000F363
:10202000328208F10808ACE4139B269F012B40F391
:10203000FE81013701340123072F27942697C8F822
:102040000060C8F8043000F3038208F10808199A08
:102050001A9BC8F8003001371444072F279426979D
:10206000C8F8042000F3008208F1080815A80DC87C
:10207000149905F08FF9139B002840F00181013B72
:10208000013701361C44072F26972794C8F80060B3
:10209000C8F8043000F3278108F108081B9AC8F833
:1020A00004200137144421AB072F27942697C8F842
:1020B00000307FF7B3AC25AA0B990C9804F0CEFA48
:1020C00000287FF49FAB279CC846A9E425AA0B995A
:1020D0000C9804F0C3FA00283FF4EBACFFF792BB76
:1020E000DDF81CB0012B00F03481022B25D1CDF896
:1020F0001CB0002400251EE625AA0B990C9804F0BC
:10210000ADFA00287FF47EAB279CC84675E425AA6B
:102110000B990C9804F0A2FA00287FF473AB279C6B
:10212000C8461BE425AA0B990C9804F097FA0028DE
:102130007FF468AB279CC84620E4CDF81CB000248F
:102140000025494600E03146E20842EA4572E808C7
:1021500004F0070305461446303354EA050201F83B
:10216000013C01F1FF36EED1079AD2077FF5F3ADBE
:10217000302B3FF4F0AD0239302306F8013CA9EBD7
:1021800001030E930E46FFF77BBB1F99002940F316
:102190002E82129B139A9342A8BF1346002B1F4610
:1021A0000DDD269BC8F8006001333C44072B2794C3
:1021B000C8F80470269300F31F8308F10808129BE7
:1021C000002FA8BFDB1B002B1F4640F3D680102F2B
:1021D000269B314D40F3ED8142462146B0464FF0FB
:1021E000100B2E460C9C0B9D04E00832103F102F64
:1021F00040F3DB8101331031072B2791269382E8CE
:102200004008F2DD25AA2946204604F027FA0028D6
:102210007FF4F8AA2799269B4A46E7E70A9B0E9384
:102220004E46FFF72DBB002D08BF0A2CC0F08F8053
:102230004E46204629460A22002305F01BF930327B
:1022400006F8012D2046294600230A2205F012F93E
:1022500004460D4654EA0503EBD1A9EB06030E93A1
:10226000FFF70EBB25AA0B990C9804F0F7F900288C
:102270007FF4C8AA9DF87770279CC846FFF75EBB1D
:102280005E1E002E7FF70AAF102E034D22DD224680
:102290004FF0100B0C9C06E054784000103E102EBE
:1022A00008F1080815DD01371032072F279226970D
:1022B00088E82008F2DD25AA0B99204604F0CEF923
:1022C00000287FF49FAA103E102E279A269FC8460A
:1022D000E9DC144601373444072F2794269788E811
:1022E00060007FF7D9AE25AA0B990C9804F0B6F9D7
:1022F00000287FF487AA279C269FC846CEE60F9A1F
:10230000146813460433E5170F9322462B46FAE46C
:1023100004321C680F9201230025FFF794BA1C6851
:1023200004330F93002521E40F990A4604320C6808
:102330000F920025FFF787BA144601333444072B68
:102340002794269388E860007FF768ABB3E6DDF852
:102350001CB0CDF81CB042AE3034012306F8414D1C
:102360000E93FFF78DBA25AA0B990C9804F076F915
:1023700000287FF447AA279CC8461F9A139B9A42BD
:1023800044DB079BD90741D4139B12989A1A1D1A54
:102390009542A8BF1546002D0EDD2699C8F80450B9
:1023A000013106442C440729C8F80060279426917F
:1023B00000F33B8208F10808002DACBF561B1646FF
:1023C000002E7FF72DAB102E269BB04DB5DD22469B
:1023D0001027DDF830B00B9C04E008F10808103E2F
:1023E000102EA9DD01331032072B2792269388E89F
:1023F000A000F2DD25AA2146584604F02FF9002856
:102400007FF400AA279A269BC846E8E7269B1998DE
:102410001A99C8F8001001330444072B2794C8F810
:102420000400269300F3F58108F10808ACE7079B48
:10243000DA073FF5FEAD013701340123072F27945A
:102440002697C8F80060C8F804307FF725AE4AE741
:1024500025AA0B990C9804F001F900287FF4D2A961
:10246000279C269FC846F2E525AA0B990C9804F0F4
:10247000F5F800287FF4C6A9279C269FC846F5E5F5
:102480004E46FFF7FDB925AA0B990C9804F0E6F823
:1024900000287FF4B7A9279CC846FFF772BA159C9D
:1024A00022462046149C2346214604F0A5FF00281E
:1024B00040F086820A9B0133119B23F020030E9388
:1024C00000F0E281472B00F01E814BF480730793EC
:1024D000149B1F1E159B0893BBBF3B4603F100478F
:1024E00000232D231093119B662B00F0BB81462BFC
:1024F00000F0DF800E9B089A452B0CBF0A9B0A9DBB
:1025000023A820A908BF5D1C049003911FA80221E5
:102510003B460290019500910C9801F0A1FA119BA5
:10252000672B064640F0E0811BF0010F00F0468269
:102530007419169A0898179B394604F02BFF002847
:1025400040F06581239BA34206D230215A1C23927E
:102550001970239B9C42F9D89B1B13930E9B472B0E
:1025600000F0E980119B652B40F3CD81119B662B18
:102570001F9B129300F09E81139B129A1946914261
:1025800000F38A811BF0010F40F0138222EAE2730C
:10259000089367230E921193109B002B40F0C48088
:1025A0000A939DF87770FFF773B935460C46464697
:1025B000904601333C44072B2794269388E8A000DB
:1025C0003FF7D1AE08F10808D7E60F9A1368043236
:1025D0000F92099A1A60FFF76AB825AA0B990C980E
:1025E00004F03CF800287FF40DA9C8468DE4269B32
:1025F000274AC8F80020013301340122072B279411
:102600002693C8F8042072DC08F1080829B9139B46
:102610001BB9079BD8077FF503AA269B19981A9A1E
:10262000C8F80020013302462244072B2792C8F83D
:102630000400269300F38D8108F108080029C0F2F8
:1026400065811399C8F8006001338C18072B279413
:102650002693C8F804107FF7E1A92CE50F9A099991
:102660001368CD170846043229460F92C3E90001CA
:10267000FFF71DB825AA0B990C9803F0EFFF00286F
:102680007FF4C0A8279CC84658E400BF5478400097
:102690004078400040210C9802F056FE0B9A1060E2
:1026A0001061002800F0F2810B9A40235361FEF77D
:1026B000EEBF23A820A90A9C049003911FA8032120
:1026C0000290089A01943B4600910C9801F0C8F9D9
:1026D00025460646119B462B06EB05047FF429AFE1
:1026E0003378302B00F078811F9D2C4421E725AAF8
:1026F0000B990C9803F0B2FF00287FF483A81F9970
:10270000279CC84682E70A9B002B08BF01230A9337
:10271000DBE630460A9403F033FF0F950E90CDF8B8
:102720001CB00346FFF7F9B92D2700238DF8777009
:102730000A93FFF7AEB81F9B12931A46033304DBCC
:102740000A9B19469142BFF617AF119B023B1193AA
:102750009DF844308DF88430129B013B002B1F9371
:10276000BDBF129BC3F101032D222B22092B8DF833
:10277000852040F316810DF193042046AB4D00E017
:10278000104685FB0312D917C1EBA20101EB8102B0
:10279000A3EB42023032092900F8012C0B4600F16C
:1027A000FF32EDDC30330238D9B2844202F8011C2A
:1027B00040F265810DF18600134601E013F8011B1C
:1027C00000F8011BA342F9D101339B1A0DF18602D7
:1027D000134421AA9B1A139A1B93012A13440E93A4
:1027E00040F319810E9B199A13440E9323EAE37365
:1027F000089300231293CFE625AA0B990C9803F0B7
:102800002DFF00287EF4FEAF279CC846D7E4234660
:10281000A2E625AA0B990C9803F020FF00287EF46D
:10282000F1AF1F9A279CC846AEE525AA0B990C98D4
:1028300003F014FF00287EF4E5AF1F9A139B279C3A
:102840009A1AC846B8E50A9B1296062B28BF06239B
:102850000A96374608930F95CDF81CB00E93744E28
:10286000FFF716B823A820A90A9D049003911FA87A
:1028700003210290089A01953B4600910C9801F0C3
:10288000EFF8064644192BE706230A931DE62D2789
:102890008DF87770FFF7CDBA199A139B1344129AEB
:1028A0000E93002A40F3B08023EAE3730893672372
:1028B000119371E6002B40F3C3800A9A002A40F07E
:1028C00099801BF0010F40F0958008930E9363E60A
:1028D0000A9B08930E930A900F95CDF81CB01290A6
:1028E0009DF87770FEF7D4BF119B472B7FF420AE85
:1028F0001BF0010F7FF4EEAE239B9B1B13930E9BEB
:10290000472B3FF418AF1F9B129321E74F42103122
:10291000484D2FDA1024DDF830B004E008F1080843
:10292000103F102F26DD01331032072B27922693FC
:10293000C8F80050C8F80440F0DD25AA0B995846A5
:1029400003F08CFE00287EF45DAF279A269BC846D4
:10295000E6E725AA0B990C9803F080FE00287EF488
:1029600051AF1F99279A269BC84667E600200A9018
:10297000FEF7D0BE01333A44072B88E8A000279227
:10298000269308F108087FF75CAE25AA0B990C98EE
:1029900003F064FE00287EF435AF279A269BC846D4
:1029A0004FE6303330228DF887308DF8862022AB09
:1029B0000FE7129B199A13440E9375E7239BCBE5FF
:1029C000149B1D4E002BB6BF2D279DF877708DF8F8
:1029D00077701A4BFFF72FBA169A0898179B39464B
:1029E00004F0D8FC00287FF47FAEC5F101051F95E7
:1029F0002C449EE5129B199A13440A9A1A4422EA1F
:102A0000E2730E920893C7E5129B0E9AC3F101037D
:102A10001A441346D0E71BF0010312937FF4E2AE91
:102A20000E9B23EAE3730893B6E500BF676666660C
:102A300038784000547840000C7840000878400016
:102A40000A9B13B91BF0010F02D0199B0133D4E785
:102A500001233AE70F9D9AF80130286840EAE070B8
:102A60000A9028460430A2460F90FEF751BE8DF81A
:102A70007710FFF767B88DF87710FFF715BA0DF1EB
:102A80008603A6E68DF87710FFF7EBB80C9A0C23B7
:102A900013604FF0FF330993FEF7BDBE8DF877103A
:102AA000FFF79AB98DF87710FFF776B98DF87710A0
:102AB000FFF759B98DF87710FFF712B92DE9F84FE4
:102AC0004B6E9C0493462FD59368126853B30E4601
:102AD000074602F1080919E920045FEA9A0817D0AD
:102AE000043D002401E0A04510D0324655F8041FF3
:102AF000384602F079F8431C04F10104F3D10023B5
:102B0000CBF80830CBF80430BDE8F88FDBF808309C
:102B10002AF0030AA3EB0A03CBF8083009F10809ED
:102B2000002BD8D10020EAE702F0C8F90023CBF847
:102B30000830CBF80430BDE8F88F00BF2DE9F04F26
:102B4000ADB01D468B4690460793069018B1836B37
:102B5000002B00F0F380DBF86430BBF90C00DF07DA
:102B600081B202D48E0540F1FC808C040AD4DBF8DB
:102B7000643040F4005123F40053ABF80C10CBF850
:102B8000643089B2080740F1B380DBF81030002BC5
:102B900000F0AE8001F01A030A2B00F0B58000238C
:102BA0000DF170090B93119310930393CDF83C90A2
:102BB000CA46CDF810B098F800304446FBB1252B3A
:102BC00002D11CE0252B03D014F8013F002BF9D1D2
:102BD000A4EB08059DB1109B119ACAF8008001333F
:102BE0002A44072BCAF80450119210937ADD002A68
:102BF00040F0B084039B10922B44CA460393237881
:102C0000002B00F0E08300204FF000038DF83730F8
:102C100004F1010862780546064603464FF0FF348A
:102C200008F10108A2F12001582900F2DE82DFE854
:102C300011F02102DC02DC022902DC02DC02DC02EF
:102C4000DC02DC02DC0289029502DC02A200BD0289
:102C5000DC029F01A401A401A401A401A401A40118
:102C6000A401A401A401DC02DC02DC02DC02DC021F
:102C7000DC02DC02DC02DC02DC02B201DC02DC028F
:102C8000DC02DC02DC02DC02DC02DC02DC02DC0254
:102C90009701DC02DC02DC02DC02DC029B01DC02CC
:102CA000DC025302DC02DC02DC02DC02DC02DC02BD
:102CB000DC02DC02DC02DC025A021B02DC02DC0267
:102CC000DC026E021B02DC02DC027302DC02F50194
:102CD00082010902D702DC029A02DC02A700DC02B0
:102CE000DC022E020AF1080A039B2B44039386E7B9
:102CF0005946069800F0ACFD18BBBBF80C1001F06B
:102D00001A030A2B7FF44BAFBBF90E30002BFFF6F2
:102D100046AFDBF86430DB0705D48F0503D4DBF85E
:102D2000580002F08FFA2B4642465946069800F0AA
:102D30004DFD039003982DB0BDE8F08F01F0B2FE79
:102D400009E7DBF86430D90704D4BBF80C309A05E6
:102D500040F1AA844FF0FF33039303982DB0BDE8F0
:102D6000F08FDBF8580002F06BFABBF90C0081B26F
:102D7000FBE67642079243F0040398F800204FE701
:102D800008969E0600F150840799DD060A4600F178
:102D9000EF83580640F1EC830E88043100270122AE
:102DA00007914FF000018DF837100025611C00F0ED
:102DB000168123F08001029156EA070140F0148148
:102DC000002C40F05C83002A40F0B78313F001032D
:102DD000059300F057840DF1B00B30230BF8413D03
:102DE000059BA342B8BF234601930DB10133019364
:102DF000029B13F00203099302D0019B023301935B
:102E0000029B13F084030A9340F01782089B019AF7
:102E10009D1A002D40F31182102D40F39084109BD9
:102E2000119AC44ED6461027A2461946069C07E0C2
:102E300001F1020C0EF1080E0146103D102D11DDBE
:102E4000481C1032072811928EE8C0001090EFDD68
:102E5000002A40F0E481103D102D11464FF0010C86
:102E6000CE46EDDC54466146F2462A4407291192CB
:102E7000CAF80060CAF80450109100F3EC829DF883
:102E800037500AF1080A481C002D40F0DE81099BEA
:102E9000002B00F0F88102320EA9022307281192BC
:102EA00010908AE80A0040F3EA81002A40F08C83FF
:102EB0000A9B802B4FF001001146CA4640F0E78183
:102EC000089B019D5E1B002E40F3E181102E9A4D60
:102ED00040F35084D4461027A246069C07E001F137
:102EE000020E0CF1080C0146103E102E11DD481C9C
:102EF0001032072811928CE8A0001090EFDD002A14
:102F000040F09D82103E102E4FF0010E1146CC462F
:102F1000EDDC5446E2463244BEF1070F11928AE8D6
:102F20006000CDF840E000F369830AF1080A0EF171
:102F300001007146ABE1089613F0200240F08C834B
:102F400013F0100140F01A8313F0400200F01683D2
:102F500007980A460146043106880791002720E7B2
:102F6000089643F01003E7E7089643F0100308E7DC
:102F700043F0800398F8002052E6A2F130010026C9
:102F800018F8012B06EB860601EB4606A2F130018C
:102F90000929F5D946E60896002840F0088443F050
:102FA00010039E0600F14C83DD0600F1F382580603
:102FB00040F1F082079DB5F900602A46F717043208
:102FC000304639460792002871F10002C0F25D8355
:102FD000611C9DF837504FF001027FF4EAAE56EACB
:102FE000070100F04D820293012A00F08C82022A30
:102FF00040F05C820B98CB46330906F00F0143EAA0
:1030000007733A091E461746435C0BF8013D56EA22
:103010000703F1D1A9EB0B030593E1E6002840F08B
:10302000C083990600F16783DA0600F1F1805B0640
:1030300040F1EE80079A136804320792BDF80C2025
:103040001A80B8E507983D4A08960B9206687822E0
:10305000302104308DF8392043F002030790002717
:103060008DF8381002229CE60896002899D08DF839
:10307000375096E798F80020002D7FF4D1AD01205D
:103080002025CDE543F0010398F80020C8E5089617
:10309000002840F0938329490B919F0600F1E882B4
:1030A0000798DE06014600F170825D0640F16D82F0
:1030B0000431068807910027D80740F1228256EA9A
:1030C000070100F01E8230218DF8392043F0020301
:1030D0008DF83810022264E60896002840F06B83D1
:1030E00017490B91D9E7079908960A688DF8482087
:1030F0004FF000000A468DF837000432012001909D
:10310000079205900DF1480B0293002470E643F0FE
:10311000400398F8002083E598F800206C2A03BF4C
:1031200098F8012043F0200308F1010843F0100350
:1031300076E500BF64784000747840002478400051
:103140001078400007990E680A46002E02F104022A
:10315000FFF60FAE079298F8002061E598F800207E
:1031600001202B255CE507990896D1F800B04FF0B7
:1031700000028DF837200E1DBBF1000F00F0E58234
:10318000671C00F0C482224600215846019302F0D9
:10319000A7FB019B002800F0E582A0EB0B02059243
:1031A000079602939DF83750002419E698F80020FE
:1031B0002A2A08F1010700F0E982A2F13001092969
:1031C000B8464FF000043FF62DAD18F8012B04EB84
:1031D000840401EB4404A2F130010929F5D921E569
:1031E00043F0200398F800201AE50896002840F0E4
:1031F000DB82002A00F0E78001218DF848204FF0A3
:10320000000201918DF8372005910DF1480B7BE705
:10321000079A136804320792039A1A60CBE40FAA44
:1032200004992046FFF74AFC002840F039811099A4
:10323000119A01F1010CCE46FFE51099119A481C34
:103240009DF83750002D3FF422AE01320DF13705C5
:103250000121072811921090CAF80050CAF80410F2
:1032600040F30881002A40F0BC81099B002B3FF409
:103270001FAE0EAB022208461C931D92CA460146A1
:103280000AF1080A01300A9B802B3FF419AE059B16
:10329000E41A002C2EDD102CB34D1EDDD646102670
:1032A000069FDDF810A006E0881C0EF1080E1946F6
:1032B000103C102C10DD4B1C1032072B11928EE8A5
:1032C00060001093F0DD002A65D1103C102C4FF007
:1032D00001001146CE46EEDCF24622440728119248
:1032E000CAF80050CAF80440109000F385800AF133
:1032F000080A01300599CAF800B00A44072811925B
:10330000CAF80410109040F38280002A40F018811F
:10331000029B1092580735D5089B01995C1A002C26
:1033200040F3E780CA46102C40F3188210998F4E64
:10333000069FDDF810B0102506E0881C0AF1080A87
:103340001946103C102C11DD4B1C1032072B11922A
:10335000CAF80060CAF804501093EEDD42BB103C7E
:10336000102C4FF001001146CA46EDDC224407281C
:103370001192CAF80060CAF80440109051DD002A8A
:1033800040F09B81039B089A01998A42ACBF9B182D
:103390005B1803934EE00FAA51463846FFF78EFBA9
:1033A000002840F03F811099119A481CCE467FE7D3
:1033B0000FAA59463846FFF781FB60B91099119A58
:1033C000481CCA46BDE7119BDDF810B0002B40F049
:1033D000D48100231093DBF8643013F0010FBBF8A5
:1033E0000C3002D19A0540F1DE805B063FF5B2ACAD
:1033F00003982DB0BDE8F08F002A40F00681059AB1
:103400001D9201231192CDF870B01093CA460AF1B3
:10341000080A029B590704D5089B01995C1A002CE5
:1034200081DC039B089901988142ACBF5B181B1893
:10343000039372BB00231093CA46FFF7BCBB0FAACD
:1034400004992046FFF73AFB50BB1099119A01F1FD
:10345000010ECC4648E5002A40F040819DF8371027
:10346000002900F01B8101220DF1370110461D9249
:103470001C91CA4601460AF1080A013007E5029B81
:10348000012A00F09880022A0DD10293002600271D
:10349000B0E50FAA04990698FFF710FB0028C9D0E1
:1034A000DDF810B097E7029300260027494600E0B8
:1034B0005946F20842EA4772F80806F00703074641
:1034C0001646303356EA070201F8013C01F1FF3B92
:1034D000EED1029AD6077FF59DAD302B3FF49AAD21
:1034E000023930230BF8013CA9EB010305938B460D
:1034F00076E4039B089A8A42ACBF9B185B1803933F
:1035000098E702224DE4002F08BF0A2E52D3CB4683
:10351000304639460A22002303F0ACFF30320BF864
:10352000012D3046394600230A2203F0A3FF064648
:103530000F4656EA0703EBD16CE50594CB464FE402
:103540000FAA04990698FFF7B9FA0028A8D1119A92
:10355000CA465EE70FAA04990698FFF7AFFA00285B
:103560009ED1CA46FFF7C0BB747840006478400023
:103570000431166807910122002712E407980146DA
:1035800004310668079100270BE40E6804310791A7
:10359000002791E507990E680A46F717043207924B
:1035A000304639460FE5DBF8580001F04BFEBBF81A
:1035B0000C301AE7029B02930DF1B00B3036012359
:1035C0000BF8416D05930BE40FAA04990698FFF7D9
:1035D00075FA00287FF464AF1099119A481CCA4606
:1035E00051E60FAA04990698FFF768FA00287FF4BD
:1035F00057AF1099119A481CCA4648E4002A40F077
:10360000918001201146CA4641E60FAA0499069806
:10361000FFF754FA00287FF443AF1098119A013055
:10362000CA4667E6D346D6E6079E073626F0070267
:1036300002F10801D2E9006707910122FFF7B1BB4F
:10364000079E073626F00706D6E9000106F10802B4
:10365000079206460F46B6E4079E073626F0070295
:1036600002F10801D2E9006707910022FFF799BB38
:10367000079E073626F0070101F108000790D1E9FF
:10368000006719E5CB46FFF7ABBB2D25764267EB0C
:1036900047078DF837500122FFF788BB099BB3B964
:1036A00011460120CA46F2E5DBF8580001F0CAFDD8
:1036B0004FF0FF330393FFF750BB0FAA049906980E
:1036C000FFF7FCF900287FF4EBAE119AA9E60EABE8
:1036D00002221C931D920120CA46D0E50FAA04992C
:1036E0000698FFF7EBF900287FF4DAAE1099119AEB
:1036F000481CCA46A4E5079A03991368CD170846E3
:10370000043229460792C3E90001FFF754BA58462C
:103710000796029302F034FF002405909DF837507D
:10372000FFF75EBB0FAA04990698FFF7C7F90028B8
:103730007FF4B6AE1099119A481CCA46A7E51099B5
:10374000119A204E0131FFF790BB062C28BF0624AA
:10375000059407960194DFF870B0D5E41098194EDF
:10376000013003E605949DF837500796029304460E
:10377000FFF736BB8646FFF7CEBB06980FAA594621
:10378000FFF79CF900283FF424AE24E6079998F847
:1037900001200C68043144EAE474B8460791FFF74D
:1037A0003FBA8DF837503CE48DF8375021E58DF85D
:1037B0003750FFF7F4BB8DF8375091E48DF8375050
:1037C00069E400BF64784000387840002DE9F0419A
:1037D0000C46ADF58D6D8989666EE589199621F0E7
:1037E00002010646E069ADF80C1017464FF48061FF
:1037F000626AADF80E5098461AAD0023079016A8DD
:1038000009920693009504950291059101F014FD2B
:1038100043463A4669463046FFF790F9051E07DBF6
:103820003046694601F0E6F8002818BF4FF0FF3532
:10383000BDF80C305B0603D5A38943F04003A38198
:10384000169801F0FBFC28460DF58D6DBDE8F08162
:1038500038B5304B1B6805460C4613B19A6B002AED
:1038600038D0B4F90C2093B218070CD52069A8B150
:1038700013F001021ED0636900225B42A361A260C3
:10388000F0B1002038BDD9063CD5580726D42069B0
:1038900042F00803A3819BB20028E9D103F420720F
:1038A000B2F5007FE4D02846214601F0FBFCA38955
:1038B0002069DDE7990758BF6269A2600028E0D15E
:1038C000B4F90C301A06DDD543F04003A3814FF064
:1038D000FF3038BD184601F0E5F8C2E7216B51B161
:1038E00004F14003994204D0284601F001FAB4F9EA
:1038F0000C200023236300232069636022F024024C
:103900002060C5E742F0400209232B604FF0FF30F2
:10391000A28138BD08004020024B13B1024800F0DC
:1039200005B8704700000000154B40000023014619
:103930001A46184602F0B6BF02690B69934200F3BB
:103940008D802DE9F04F03F1FF3801F1140700F1EC
:10395000140B57F828205BF828304FEA880483B00E
:103960000132B3FBF2F90BEB0403009407EB040AFA
:103970000193B9F1000F39D000252E46BC46DE4632
:103980005CF8044BDEF80030A2B209FB0255220CB1
:103990002C0C09FB0242ADB2751B96B2C6EB134666
:1039A00015FA83F306EB23469BB243EA0643E2454E
:1039B0004FEA12454EF8043B4FEA2646E0D2009B00
:1039C0005BF8033093B9019C231F9B450CD254F83C
:1039D000043C4BB9A4F1080302E01A68043B1AB98D
:1039E0009B4508F1FF38F8D3C0F81080044602F078
:1039F000CFFA00282EDB09F101095D46002357F8B4
:103A0000041B28688AB29A1A0B0C12FA80F2C3EBD4
:103A1000104303EB224392B242EA0342BA4545F80F
:103A2000042B4FEA2343EAD25BF828200BEB8803F0
:103A300082B91A1F93450BD253F8042C42B9083BA4
:103A400002E01A68043B1AB99B4508F1FF38F8D325
:103A5000C4F81080484603B0BDE8F08F00207047DE
:103A60002DE9F04F016C9BB00446279E92469B4681
:103A700041B1426C4A60012393408B6002F0B0F880
:103A800000232364BBF1000F5D4635DB0023336068
:103A90009D4BAB4315D0504659460022002303F0FE
:103AA00079FC804600282DD0269A01231360289B9C
:103AB000002B00F0BD809548186001381BB0BDE8B0
:103AC000F08F269A42F20F731360BAF1000F0DD1F6
:103AD000C5F3130555B9289B8D48002BEED000F196
:103AE0000803289A13601BB0BDE8F08F289B894813
:103AF000002BE3D0C31CF4E701232BF00045336017
:103B0000AB46C5E718AA19AB0192009352465B4633
:103B1000204602F0DDFA2B0D814671D0CBF3130263
:103B200042F07F51189FCDF850805046A3F2FF36E7
:103B300041F440110022784B03F010F86CA3D3E954
:103B4000002303F0BFF96CA3D3E9002303F008F8C6
:103B5000CDE90201304603F04FF969A3D3E9002310
:103B600003F0B0F902460B46DDE9020102F0F8FF6E
:103B7000CDE9040103F056FC002202900023DDE9A8
:103B8000040103F011FC002840F07381029D162D02
:103B900000F25D81614B03EBC503D3E9000152469E
:103BA0005B4603F01FFC002800F0C5816B1E0293EA
:103BB00000230E93BF1B7B1E069300F1548100234C
:103BC0000893029B002BC0F24581069A0D93114683
:103BD0001944002306910C93249B092B2AD8052B0A
:103BE00040F35B86043B24930025249B023B032B7C
:103BF00000F24286DFE813F0D403C902DF03610458
:103C0000189F199E3E4406F23243202B40F38E81CA
:103C1000C3F1400306F212409D402AFA00F0284307
:103C200003F0DAF80123013EA1F1F871149381E762
:103C30003B4843E7002161642046259101F0AAFF3B
:103C40004FF0FF330A93259A0F93012304902064C9
:103C500024920B93199B002BC0F2D980029A0E2A52
:103C600000F3D5802D4B03EBC203D3E90023CDE94C
:103C70000823259B002BC0F2BA83DDE90856504685
:103C80002A463346594603F047FA03F0CBFB8046F9
:103C900003F0B2F82A46334603F014F90B46024605
:103CA0005946504602F05AFF049D08F130032B702C
:103CB0000A9B012B06460F4605F1010568D000223C
:103CC000184B03F0FFF80022002306460F4603F0CE
:103CD00061FB002840F08880CDF82C904FF0000A5E
:103CE000DFF840B00C94DDE9088928E0AFF30080EC
:103CF00061436F63A787D23FB3C8608B288AC63FF2
:103D0000FB799F501344D33F0000F07F417840007F
:103D100084784000907840000000F83FD078400060
:103D2000407840000000244003F0CCF8002200233B
:103D300006460F4603F02EFB002840F0C1834246A2
:103D40004B463046394603F0E7F903F06BFB044677
:103D500003F052F842464B4603F0B4F802460B46D5
:103D60003046394602F0FAFE04F1300E049E05F8A2
:103D700001EBA5EB060E0A9EB645CDE906015246BB
:103D80005B46D1D1A046DDF82C900C9C06460F4630
:103D900032463B463046394602F0E2FE06460F46C2
:103DA00002460B46DDE9080103F0FEFA48B9324647
:103DB0003B46DDE9080103F0EDFAA8B118F0010F68
:103DC00012D015F8018C049A6B1E04E09A4200F0A0
:103DD000018413F8018DB8F1390F03F10105F5D015
:103DE00008F1010883F800804946204601F0F8FEFA
:103DF0000022029B2A70269A01331360289B002B15
:103E000000F09E8304981D601BB0BDE8F08F0B9AF4
:103E1000002A3ED0249A012A40F311830A9B0C9A6F
:103E20005F1EBA42C0F28F83D71B0A9B002BC0F2E1
:103E30008B84089D0A9B089A1A440892069A0121CD
:103E40001A442046069201F065FF064624E001234D
:103E50000E93AFE6089A029BD21A5B420C930023A2
:103E600008920D93B8E6C7F1010308930023069367
:103E7000A7E6029D284602F0BFFF02460B46DDE999
:103E8000040103F087FA00287FF480AE6B1E0293D2
:103E90007CE60C9F089D0B9E002D0CDD06990029E9
:103EA0000B4608DDA942089AA8BF2B46D21AED1A84
:103EB000CB1A089206930C9BD3B10B9B002B00F0FE
:103EC000B782002F10DD31463A46204601F0BEFF92
:103ED0004A4601460646204601F026FF49468046EE
:103EE000204601F07DFEC1460C9BDA1B40F0A1820A
:103EF0000121204601F00EFF0D9B002B80461CDDAA
:103F000001461A46204601F0A1FF249B012B804662
:103F100040F3548200230C93D8F8103008EB83034D
:103F2000186901F0A7FEC0F1200010E0C3F12005E0
:103F30000AFA05F074E60E903CE6249B012B40F350
:103F4000878200230C930D9B0120002BE4D1069A5D
:103F5000104410F01F0000F0A180C0F12003042BDA
:103F600040F39E84089BC0F11C0003440893134651
:103F7000034405440693089B002B05DD49461A4679
:103F8000204601F0B3FF8146069B002B05DD41462C
:103F90001A46204601F0AAFF80460E9B002B40F0F7
:103FA00086800A9B002B40F366820B9B002B00F05F
:103FB0009880002D05DD31462A46204601F096FF07
:103FC00006460C9B002B40F0378306960A9B049A0A
:103FD000DDF818B0013BD3180B930AF001030C93E2
:103FE0001746C24651464846FFF7A6FC31460546ED
:103FF000484601F0CDFF5A460A905146204601F04E
:10400000E3FFC268804605F13003002A40F02B82AE
:1040100001464846089301F0BBFF41460690204602
:1040200001F0DEFD069A089B32B9249921B90C9A59
:10403000002A00F0EF83249A0A990029C0F29F8297
:1040400005D1249919B90C99002900F09882002A09
:1040500000F306830B9A3B7007F10108974245462F
:1040600000F00C83494600230A22204601F0C2FDDD
:104070005E45814631464FF000034FF00A0220466C
:1040800000F0EB8101F0B6FD5946064600230A22F6
:10409000204601F0AFFD47468346A3E71C20089B5E
:1040A00003440893069B03440544069363E7414693
:1040B000484601F06DFF0028BFF673AF029F4946E6
:1040C00000230A222046013F029701F093FD0B9B3B
:1040D0008146002B40F0B6830F9B002B40F3BF833B
:1040E0000A93DDF810B00A9F5D4602E001F082FD00
:1040F000814641464846FFF71FFC00F1300A05F8AB
:1041000001ABA5EB0B03BB424FF00A024FF00003DB
:1041100049462046EADB049B0A9A012AACBF9B1859
:1041200001331D464FF0000B49460122204601F0A5
:10413000DDFE4146814601F02BFF002840F33D8221
:1041400015F8012C04996B1E04E08B4200F0AE813F
:1041500013F8012D392A03F10105F6D001321A7046
:104160004146204601F03CFD002E3FF43DAEBBF140
:10417000000F05D0B34503D05946204601F030FD6D
:104180003146204601F02CFD2EE600230B93029BC6
:10419000259A13440F930133012B1F461E460A93A1
:1041A000B8BF01270021172F61640AD90122042317
:1041B0005B0003F114008742114602F10102F7D2BD
:1041C0006164204601F0E6FC0E2E049020643FF668
:1041D00041AD002D3FF43EAD02990029CDE910AB71
:1041E00040F30282B84B01F00F020D1103EBC20342
:1041F000E906D3E9006740F1AE81B44B5046594619
:10420000D3E9082302F088FFCDE9120105F00F057C
:104210004FF0030A8DB1DFF8B482EA0709D53046C2
:104220003946D8E9002302F04DFE0AF1010A06469C
:104230000F466D1008F10808EFD13B463246DDE924
:10424000120102F069FF074688460E9B43B1002227
:104250009F4B3846414603F0A7F8002840F086827D
:10426000504602F0C9FD3A46434602F02BFE994BF8
:10427000002202F075FC0A9B0546A1F15076002B46
:1042800000F03E81029B15930A9B12930B9B002B1F
:1042900000F0FA81129A8C4B8F4903EBC20353E969
:1042A0000223002002F038FF2A46334602F056FC73
:1042B00082468B463846414603F0B4F8054602F084
:1042C0009BFD02460B463846414602F047FC30351E
:1042D0005FFA85F8049D06460F4685F80080024681
:1042E0000B4650465946013503F07CF8002854D15E
:1042F00032463B460020764902F030FC02460B462F
:104300005046594603F06EF8002840F07082129A29
:10431000012A00F01181129B049ACDF848901344B1
:1043200099460DE000206A4902F018FC52465B46AF
:1043300003F03AF8002840F058824D4500F0FA802A
:10434000504659460022654B02F0BCFD0022634BEB
:1043500082468B463046394602F0B4FD0F4606468B
:1043600003F060F8804602F047FD02460B463046F7
:10437000394602F0F3FB08F130085FFA88F852463C
:104380005B4605F8018B06460F4603F00DF83246F2
:104390003B460028C6D0DDF84890159B029323E5E4
:1043A00000230B93259B002B40F3DC801F461E4609
:1043B0000F930A93F6E601230B93F3E7BAF1000F8C
:1043C0007FF4A8ADCBF31303002B7FF4BAAD2BF031
:1043D00000473F0D3F05002F00F00D82089B013381
:1043E0000893069B0133069301230C93ABE50A9BCC
:1043F000002B3FF742AC40F021820022384BDDE930
:10440000080102F05FFD52465B4602F0E1FFDDF875
:1044100028804646002841D0259B049DDB4302931B
:104420004146204601F0DCFB002E3FF4DDACA7E660
:104430000C9A4946204601F009FD814658E5149A38
:10444000002A00F0878103F233430C9F089DF2E4B9
:10445000BAF1000F7FF475ADB4E701F0CBFB47462E
:1044600006468346BEE501462046069301F0B8FBAA
:104470000122069BE0E5249B022B7FF796AD0A9B69
:10448000002BC9D141460522204601F0B3FB01466D
:104490008046484601F07CFD0028BDDD029A049963
:1044A0003123013202920B704D1CB9E7029A01329E
:1044B0000292049A3123137052E601230B9366E6AD
:1044C000DDF82C900C9C8FE4D0784000A878400058
:1044D0000000F03F00001C400000E03F00002440CE
:1044E00000001440504602F087FC3A46434602F072
:1044F000E9FC0022C14B02F033FB0546A1F15076E6
:1045000041460022BE4B384602F028FB2A4633467D
:1045100082468B4602F066FF8046002840F01081FC
:104520002A4606F100435046594602F03DFF18B1B5
:10453000464671E7DDF84890DDE910ABFFF78ABB2E
:104540000498FFF7BBBA0C9B0D9A0C97FB1A1A4400
:104550000D92002769E4DDE910234FF0020ACDE94E
:10456000122357E60021012361642046259301F0C0
:1045700011FB259B049020640A930F9329E6002ADF
:10458000D046CDF818B09A4611DD494601222046A2
:1045900001F0ACFC4146814601F0FAFC002840F3F2
:1045A0004681BAF1390F00F0068105F1310AB346B0
:1045B00087F800A07D1C069ED2E504D11AF0010FF9
:1045C00001D0BDE5154615F8013C302B05F1FF3251
:1045D000F8D0C5E5049930220A70029A15F8018CCA
:1045E00001320292FFF7FCBB00F0BB80029B5D42F0
:1045F000844B05F00F0203EBC203D3E90023DDE98E
:10460000100102F05FFC2D110746884600F02C8156
:104610007D4E4FF0020AEB0709D538464146D6E9F0
:10462000002302F04FFC0AF1010A074688466D108C
:1046300006F10806EFD108E67168204601F0AAFAF3
:10464000336902339A00054606F10C010C3001F083
:1046500097F929460122204601F048FC0690B5E46E
:10466000392BCDF818B0D04600F0A58003F1010A2F
:10467000B34687F800A07D1C069E71E55A46D046D9
:10468000B3469A4616464FE5129B5E4901EBC301BD
:104690002A46334651E9020102F014FCCDE9160125
:1046A0003846414602F0BEFE054602F0A5FB0B4629
:1046B00002464146384602F051FA129B0F460499D1
:1046C0003035012B0D70064601F1010526D0129BF5
:1046D000049ADFF83CB1CDF8489013444FF0000A3B
:1046E000994652465B463046394602F0EBFB0F4690
:1046F000064602F097FE804602F07EFB08F1300885
:1047000002460B463046394602F028FA05F8018B7E
:104710004D4506460F46E4D1DDF848903B4B00225C
:10472000DDE9160102F01CFA32463B4602F03CFE7F
:10473000002846D0159B029315F8018CFFF743BB68
:104740004FF000084646A9E6089B0A9A9D1A0023E6
:10475000FFF771BB189B0C9F089DC3F13603FFF751
:104760006ABBDDE910784FF0020A6EE50A9B002B68
:104770003FF4B8AE0F9B002B7FF7DEAE0022244B38
:104780003846414602F09EFB074688460AF1010082
:1047900002F032FB3A46434602F094FB0022174BEC
:1047A00002F0DEF9029A0F9B1293013A0546A1F13D
:1047B000507615926AE53922B3463A70069E7D1C02
:1047C000C0E4DDE916230020104902F0C7F93246A3
:1047D0003B4602F007FE08B9AEE6154615F8013C67
:1047E000302B05F1FF32F8D0D7E5DDF84890159B66
:1047F0000293FFF7E8BA0C97FFF7A5BB00001C4037
:1048000000001440D0784000A87840000000E03F4D
:1048100000002440392BCDF818B0D046DDF828B080
:104820009A46C8D0BBF1000F3FF7BFAEBFE67FF49A
:10483000BEAE1AF0010F3FF4BAAEB2E64FF0000878
:104840004646E9E5314600230A22204601F0D2F926
:104850000F9B002B06460ADD0A93FFF7AABB249B99
:10486000022B23DC0F9B3BE44FF0020AEDE4249B78
:10487000022B1BDC0F9BEFE70025656429462046D1
:1048800001F088F94FF0FF330A930F93012304904E
:10489000259520640B93FFF7DDB90125FFF7A5B936
:1048A0003FF469ABC0F13C00FFF7F9BB0F9B0A93E3
:1048B000E5E500BFB1F90C309AB22DE9F0410D46A3
:1048C000110780463AD46A6843F40063002AAB813A
:1048D0006FDDAC6A002C49D000229BB2D8F8006092
:1048E000C8F8002013F4805267D02A6D5F0705D501
:1048F00069682B6B521A0BB1EB6BD21A0023E96972
:104900004046A047441C3CD0B5F90C302A692A60C7
:1049100023F400630022AB81DB046A6047D4296B77
:10492000C8F8006011B305F14003994202D0404637
:1049300000F0DEF900202863BDE8F0812E69AEB1F9
:104940002C682E6091070CBF6B690023A41BAB6021
:104950000AE0234632466F6AE9694046B8470028B4
:10496000A4EB0004064404DD002CF2DC0020BDE8CA
:10497000F081AB8943F04003AB814FF0FF30BDE8DD
:10498000F081D8F800401D2CF3D8194BE340DB43ED
:1049900013F00103EDD1B5F90C206B6022F4006334
:1049A0002969AB81DA042960B9D5002CB7D1286513
:1049B000B5E7EA6B002A8CDCD8E70123E9694046B9
:1049C000A047431C024602D0AB89AC6A8EE7D8F8F8
:1049D0000030002BF8D01D2B01D0162B02D1C8F8C7
:1049E0000060C3E7AB8943F04003AB81BDE8F081D1
:1049F0000100402038B50D46044608B1836BBBB1B9
:104A0000B5F90C0088B16B6EDB0701D4810517D5B1
:104A100020462946FFF74EFF6B6EDA07044602D4A4
:104A2000AB899B0507D5204638BD0446204638BDD6
:104A300000F038F8E4E7A86D00F004FC204638BD2B
:104A4000A86D00F0FDFBE3E7014900F0AFBB00BF3C
:104A5000ED69400010B5002304468181C2810360E6
:104A600043608360436603614361836119460822A2
:104A70005C30FCF77FFC07480749084A084B206276
:104A8000E4616162A262E36204F15800BDE8104093
:104A900000F0D2BBF96440001D654000596540003C
:104AA0007965400010B50446124800F0C9FBA26BBE
:104AB000D2B904F53B731048C4F8E8320321C4F8B6
:104AC000E022E063C4F8E41260680421FFF7C2FF4B
:104AD00001220921A068FFF7BDFF02221221E06830
:104AE000FFF7B8FF0123A3630248BDE8104000F0C0
:104AF000A9BB00BFA00A4020494A4000014800F07D
:104B00009FBB00BFB40A4020014800F09BBB00BF20
:104B1000B40A402038B50A4C0A4D641BA4100AD0D0
:104B200004F18043013B05EB8305013C55F8043952
:104B30009847002CF9D1BDE8384002F0BFBF00BF54
:104B4000CC7A4000C87A40002DE9F04782B0804618
:104B50008946144600F054FB012836D04A4604F139
:104B60005C0301A9404601F04FFE421C064625D0D9
:104B7000A8B39DF804E000250DF1040A09E02368BC
:104B80005A1C226083F800E00135B54227D215F89F
:104B90000AE0A368013B002BA360F0DAA769BB42DF
:104BA00071462246404602DBBEF10A0FE7D101F012
:104BB000D3FD431CE8D102B0BDE8F087A38943F0E0
:104BC0004003A38102B0BDE8F08709F1FF33FE2B5B
:104BD000C4D85FFA89FE06468DF804E0CBE7484664
:104BE00002B0BDE8F08700BF30B5536E13F0010F7F
:104BF000B2F90C30144683B005469AB201D1900543
:104C00001CD5900406D4626E43F4005342F4005263
:104C1000A381626628462246FFF796FF636EDA0795
:104C2000054602D4A3899B0502D5284603B030BDB2
:104C3000A06D00F007FB284603B030BDA06D0191C8
:104C400000F0FEFAB4F90C3001999AB2D9E700BF2E
:104C5000F8B5244F0C46064600F090FFBB685D682F
:104C6000C4F57E610F3125F00305294421F47F61ED
:104C700021F00F01A1F58054B4F5805F07DB00211E
:104C8000304601F027FCBB682B44984204D03046E4
:104C900000F07AFF0020F8BD6142304601F01AFCB6
:104CA00001300DD0104BBA6819682D1B45F0010575
:104CB0003046091B5560196000F066FF0120F8BD01
:104CC0000021304601F006FCBA68831A0F2BDEDDA6
:104CD000064C0549246843F00103001B536008603B
:104CE000D5E700BFA8054020540A4020B009402065
:104CF000002944D02DE9F0410D46804600F03EFFEA
:104D000055F8047C694927F00103A5F10804E2186D
:104D10008E685068B24220F003005ED0FE075060FB
:104D20000BD455F8087CE41B01F1080EA568754505
:104D30003B446DD0E768EF60BD6015186D68ED0706
:104D40003ED543F001026260E350B3F5007F17D215
:104D5000DB08581C9A104D6851F83070A760012389
:104D6000934001EBC0022B43083AE2604B6041F8EC
:104D70003040FC604046BDE8F04100F005BF7047A0
:104D80005A0A042A52D89A0902F13907FF0002F19F
:104D90003805C819CA59083890424FD0516821F0D7
:104DA00003018B4232D292689042F7D1C368A0606F
:104DB000E3609C60C4604046BDE8F04100F0E4BEA2
:104DC00095683B4FBD42034440D0D068E86043F053
:104DD000010285606260E350B7E7FF07034407D430
:104DE00055F8082CA41A1344A068E268C2609060C9
:104DF000304A126843F00100934260608C60B9D37E
:104E00002D4B40461968FFF723FFB3E71046CDE767
:104E100011184968C90744D49168D268CA6003442C
:104E200043F0010091606060E350A3E7142A16D8B4
:104E300002F15C07FF0002F15B05AAE7AA1001235B
:104E40004D6893402B434B600346B0E743F00102AB
:104E50004C610C61E560A5606260E3508AE7542A0A
:104E600006D81A0B02F16F07FF0002F16E0590E7FA
:104E7000B2F5AA7F06D8DA0B02F17807FF0002F13B
:104E8000770586E740F25450824206D89A0C02F128
:104E90007D07FF0002F17C057BE74FF47E777E25DE
:104EA00077E743F001016160136063E7A8054020E4
:104EB000B0054020B4094020840A40209368002BAC
:104EC00073D02DE9F04F8B8983B00C461907009001
:104ED000164626D5226922B313F0020035682CD07D
:104EE0004FF00009B04FC846B246B84543464A465F
:104EF00028BF3B460098B8F1000F50D0E169666AC0
:104F0000B047002858DDDAF808301B1A8144A8EBB6
:104F10000008CAF80830002BE7D1002003B0BDE834
:104F2000F08F21460098FEF793FC002840F0338173
:104F3000A389356813F00200D2D113F0010945D1DD
:104F40004F46019637B39A05D4F8088040F1838024
:104F50004745C346C0F0AB8013F4906F40F0AC807F
:104F60002068BA465A46494600F0A4FDA268236864
:104F7000A2EB08025B44A2602360019A9368A3EB52
:104F80000A03D144A7EB0A079360002BC5D0A3897D
:104F9000002FD8D1D5F800906F680835D2E7D5F842
:104FA0000090D5F8048008359FE70020704721461F
:104FB0000098FFF71FFD70B3B4F90C3043F04003C5
:104FC0004FF0FF30A38103B0BDE8F08F8146334638
:104FD0004E46A8469A464D464EB380B32068236994
:104FE0006269B145CB4628BFB34698425F4604D9B3
:104FF000A36813449B4500F3A68093454BDB1346FF
:10500000676AE16900982A46B847071ED4DDB9EB04
:105010000709CCD00120DAF80830DB1B3D44F61B31
:10502000CAF80830002B3FF478AF002ED5D108F134
:10503000080313E9600098460833002EF9D0324681
:105040000A21284600F04CFC002800F0A180013025
:10505000A0EB0509C2E720682369984202D863697A
:105060009F425DD2B84528BFB8464246494600F047
:1050700021FDA3682268A3EB08034244A3602260D9
:105080000BB1C24679E721460098FFF7B3FC002830
:1050900092D1C24671E75A46294600F00BFDA2683C
:1050A0002368A2EB0B025B44A2602360AFE7206899
:1050B000B846BA46BB4655E762692068216902EBEB
:1050C0004208A0EB010A08EBD8780AF101004FEA88
:1050D000680838444045424684BF804642465B05E6
:1050E00044D51146009800F02FF98346002855D08A
:1050F0005246216900F044FCA38923F4906343F0F5
:105100008003A3810BEB0A00A8EB0A03C4F810B0DC
:10511000C4F814802060A360B846BA46BB4621E7B5
:105120006FF00041B94228BF39464A4691FBF3F17E
:105130000098666A03FB01F3E169B047B0F1000A29
:105140003FF71BAF38E71A462946019300F0B2FC3F
:105150002268019B00981A4422602146FFF74AFC0E
:10516000019B00287FF428AF1F4650E7009801F00C
:105170000BF883460028C5D1009D21692846FFF71A
:10518000B7FDB4F90C300C2223F080032A6015E738
:1051900006F1010922E74FF0FF30BFE6009A0C2329
:1051A0001360B4F90C3009E700FCFF7F2DE9F843E8
:1051B00010F538771FD0884606464FF000097D6805
:1051C000BC68013D11D4A389012B05F1FF3508D935
:1051D000B4F90E3001332146304602D0C04749EAC7
:1051E00000096B1C04F16804EDD13F68002FE6D183
:1051F0004846BDE8F883B9464846BDE8F88300BF95
:10520000044B054A1B685B6B002B08BF134693F8E1
:1052100028017047080040203C044020044A054B08
:105220001268506B002808BF1846F030704700BF66
:10523000080040203C044020704700BF704700BF7A
:10524000704700BF704700BF70B50C46B1F90E1033
:10525000002990B015461E4614DB01AA01F028FC77
:1052600000280FDB029A02F47042A2F50052B2FA53
:1052700082F252094FF480634FF4006032602B6079
:1052800010B070BDA289002312F08000336004D0FA
:10529000402218462A6010B070BD4FF480632B6026
:1052A00010B070BD8A8992070B4606D501F1430202
:1052B00001211A601A6159617047F0B583B001ABE2
:1052C0006A460C460646FFF7BFFF00990546304682
:1052D00000F03AF8B4F90C30D8B1019A154F0099A2
:1052E000F76343F08003A3812060206161611AB9F4
:1052F0002B43A38103B0F0BD3046B4F90E1001F08A
:10530000EBFBA0B1A38923F0030343F001031BB21D
:10531000EEE79A05EED423F0030304F1430243F0D1
:1053200002030121A381226022616161E2E7B4F9F5
:105330000C30DDE7494A4000024B0146186800F096
:1053400003B800BF080040202DE9F04F01F10B0623
:10535000162E83B0054640F29E8036F0070600F117
:10536000BD80B14200F2BA8000F008FCB6F5FC7FC7
:10537000C0F09382730A00F0B880042B00F27981A8
:10538000B30903F1390003F1380EC300BF4F3B44AA
:10539000A3F108015C68A14206D10CE0002A80F26A
:1053A000AA80E468A14206D0636823F003039A1B35
:1053B0000F2AF3DD70463C69DFF8E4E2744500F043
:1053C000AB81636823F003039A1B0F2A00F39081DB
:1053D000002AC7F814E0C7F810E080F29D80B3F50A
:1053E000007F80F06181DB0803F1010C99107A687D
:1053F00057F83C80C4F8088001238B4007EBCC01B0
:1054000013430839E1607B6047F83C40C8F80C4022
:105410008210012494409C4200F28B801C4206D1F1
:1054200020F0030064001C4200F10400FAD007EBF6
:10543000C009CC468046DCF80C309C4507D16DE1B4
:10544000002A80F27B81DB689C4500F06781596807
:1054500021F003018A1B0F2AF2DDD3F80CC0D3F828
:10546000088000939C19284646F0010642F0010589
:105470005E60C8F80CC0CCF808807C613C61C4F860
:105480000CE0C4F808E065605A5000F07DFB009B1A
:1054900003F108041EE0102920D800F06FFB10264D
:1054A00018230220794F3B44A3F108025C68944220
:1054B00000F03D816368E168A66823F0030323449C
:1054C00028465A68F16042F001028E605A6000F08E
:1054D0005BFB0834204603B0BDE8F08F00240C23AA
:1054E00020462B6003B0BDE8F08F40204FF40073DE
:1054F0004FF03F0E4AE72344E1685A68A66842F03D
:105500000102F16028468E605A6000F03DFB0834CD
:10551000204603B0BDE8F08F234428465A6842F085
:1055200001025A6000F030FB0834204603B0BDE8A9
:10553000F08FBC68636823F00308B04504D3A8EB80
:1055400006030F2B00F38580DFF85891504BD9F8F4
:1055500000201B680132334404EB080A00F0558137
:1055600003F580530F3323F47F6B2BF00F0B594659
:10557000284600F0AFFF411C024600F0FC80824547
:1055800000F2F780434B19685944196000F04D81CF
:10559000D9F8000001301BBFA2EB0A0A5144C9F838
:1055A0000020196012F0070100F01581C1F1080018
:1055B000C1F580510244083102EB0B09C9F30B0914
:1055C000A1EB0909494628460193009200F082FFA9
:1055D000431C9DE80C0000F04381801A484440F0D1
:1055E00001001968BA604944BC425060196017D084
:1055F000B8F10F0F40F2FB806068A8F10C0222F0B6
:10560000070204EB020E00F001004FF0050C1043FE
:105610000F2A6060CEF804C0CEF808C000F21781EF
:105620001D4BBC681A68914288BF19601B4B1A68F1
:105630009142626888BF196022F003029642A2EB91
:10564000060301D80F2B04DC284600F09DFA002445
:1056500040E7A21943F0010346F0010666602846C0
:10566000BA60536000F090FA0834204603B0BDE8F9
:10567000F08F142B71D9542B00F2A380330B03F15C
:105680006F0003F16E0EC30080E600BFA805402046
:10569000840A4020540A40207C0A4020800A40208E
:1056A000B0054020B00940205A0A042A5BD9142AC8
:1056B00000F2AE8002F15C01C9005B3207EB010C25
:1056C0007958ACF1080C8C4500F088804A6822F0CB
:1056D0000302934273D289688C45F7D1DCF80C2021
:1056E0007B68E260C4F808C09460CCF80C408FE698
:1056F000A11946F0010C42F00106C4F804C0284686
:1057000079613961C1F80CE0C1F808E04E60E250FF
:1057100000F03AFA0834DDE67B6879E608F1010822
:1057200018F0030F0CF1080C7FF485AE2DE0DC6857
:10573000A34208BF02303FF43EAEBBE619441C460C
:105740004A68DB6854F8086F42F001024A60284654
:10575000F3609E6000F018FABCE603F15C0003F110
:105760005B0EC30012E69A0902F13901C900383212
:10577000A4E7BC4254D0BC68626822F003025DE733
:1057800059F80839994540F0868010F0030F00F170
:10579000FF30F5D17B6823EA04037B6064009C4200
:1057A0003FF6C7AE002C3FF4C4AE1C4240467FF427
:1057B0003EAE64001C4200F10400FAD037E68C468D
:1057C0008CE7B3F5AA7F15D8F30B03F1780003F14A
:1057D000770EC300DAE54FF48051EDE67B68921056
:1057E000012101FA02F213437B60624679E701234B
:1057F000536029E740F25452934222D8B30C03F18C
:105800007D0003F17C0EC300C0E503F1100BAEE692
:10581000542A29D81A0B02F16F01C9006E324DE7E4
:10582000204B196859441960B2E6CAF30B000028EE
:105830007FF4AEAE08EB0B03BA6843F0010353608C
:10584000EEE67F204FF47E734FF07E0E9EE504F16E
:10585000080128460093FFF74BFA009B1968DFE622
:1058600001204FF00009BCE6B2F5AA7F05D8DA0B9B
:1058700002F17801C900773220E740F254518A42A0
:1058800005D89A0C02F17D01C9007C3216E74FF46D
:105890007E717E2212E77B6880E7F00806F108033C
:1058A00000E600BF540A402082B049B15AB16BB142
:1058B00013780B601278101C18BF012002B07047DB
:1058C00001A9002AF3D1104602B070476FF0010021
:1058D000F4E700BF0000000000000000000000002E
:1058E00001F0FF01102A2BDB10F0070F08D010F891
:1058F000013B013A8B422DD010F0070F42B3F6D195
:10590000F0B441EA012141EA014122F007047FF0AD
:1059100000070023F0E80256083C85EA010586EA04
:10592000010685FA47F5A3FA87F586FA47F6A5FA40
:1059300087F68EB9EED1F0BC01F0FF0102F007024C
:1059400032B110F8013B013A83EA010313B1F8D1F7
:105950000020704701387047002D06BF35460338D8
:10596000073815F0010F07D1013015F4807F02BF11
:10597000013015F4C03F0130F0BC0138704700BF62
:10598000844641EA000313F003036DD1403A41D34A
:1059900051F8043B40F8043B51F8043B40F8043B09
:1059A00051F8043B40F8043B51F8043B40F8043BF9
:1059B00051F8043B40F8043B51F8043B40F8043BE9
:1059C00051F8043B40F8043B51F8043B40F8043BD9
:1059D00051F8043B40F8043B51F8043B40F8043BC9
:1059E00051F8043B40F8043B51F8043B40F8043BB9
:1059F00051F8043B40F8043B51F8043B40F8043BA9
:105A000051F8043B40F8043B51F8043B40F8043B98
:105A1000403ABDD2303211D351F8043B40F8043B38
:105A200051F8043B40F8043B51F8043B40F8043B78
:105A300051F8043B40F8043B103AEDD20C3205D348
:105A400051F8043B40F8043B043AF9D2043208D040
:105A5000D2071CBF11F8013B00F8013B01D30B88B2
:105A600003806046704700BF082A13D38B078DD090
:105A700010F003038AD0C3F10403D21ADB071CBF62
:105A800011F8013B00F8013B80D331F8023B20F8CC
:105A9000023B7BE7043AD9D3013A11F8013B00F805
:105AA000013BF9D20B7803704B7843708B7883708D
:105AB000604670478842F0B50DD98B1898420AD2DB
:105AC0008418002A51D0224613F8014D02F8014DE6
:105AD0009942F9D1F0BD0F2A48D941EA00039B074A
